S01B0000444D6F746F725F6C696E65666F6C6C6F7765722E7372656343
S11300000C9434000C9446000C9446000C94460066
S11300100C9446000C9446000C9446000C94460044
S11300200C9446000C9446000C9446000C94460034
S11300300C9446000C9446000C9446000C94460024
S11300400C9446000C9446000C9446000C94460014
S11300500C9446000C9446000C9446000C94460004
S11300600C9446000C94460011241FBECFEFD8E038
S1130070DEBFCDBF21E0A0E0B1E001C01D92A03001
S1130080B207E1F70E9448000C94BB000C940000F6
S11300900E945F002FE382E49FE021508040904063
S11300A0E1F700C000000E945600FDCF84EA80936F
S11300B0BC00ECEBF0E080818823ECF70895239AF0
S11300C08AB188668AB984B1887F84B9579884B51F
S11300D0836A84BD84B5837A84BD85B5836085BD18
S11300E085B5837085BD16BC10926E0017BC18BC14
S11300F0E0E8F0E08081836A80838081837A808372
S1130100E1E8F0E080818B60808380818B70808364
S113011010928200109285001092840010926F0059
S11301201092870010928600109289001092880025
S113013010928B0010928A00E0EBF0E08081836AD9
S113014080838081837A8083E1EBF0E08081846026
S113015080838081847080831092B200109270003A
S11301601092B3001092B400E1E6F0E08081806860
S10D0170808310820895F894FFCFF5
S9030000FC
