S01B0000444D6F746F725F6C696E65666F6C6C6F7765722E7372656343
S11300000C9434000C943E000C943E000C943E007E
S11300100C943E000C943E000C943E000C943E0064
S11300200C943E000C943E000C943E000C943E0054
S11300300C943E000C943E000C943E000C943E0044
S11300400C943E000C943E000C943E000C943E0034
S11300500C943E000C943E000C943E000C943E0024
S11300600C943E000C943E0011241FBECFEFD8E048
S1130070DEBFCDBF0E9440000C94BB000C94000076
S11300800E946A000E9471000E949F0003EB10E02E
S11300900F2EFFE7FF2EF02DC4EBD0E00E94B3003B
S11300A088235CF48195880F9F2D981B97BD18BCFD
S11300B0F801108281588883F1CF18167CF7880FD5
S11300C09FE7980F97BD18BCF8011082FF2DF81B0D
S11300D0F883E4CFE1E6F0E08081806880831082D9
S11300E00895239A8AB188668AB984B5836A84BDDF
S11300F084B5837A84BD85B5836085BD85B58370F9
S113010085BD16BC10926E0017BC18BCE0EBF0E085
S11301108081836A80838081837A8083E1EBF0E04D
S11301208081846080838081847080831092B20097
S1130130109270001092B3001092B400089584E0FD
S113014090E09093C5008093C400E1ECF0E08081DE
S113015088618083E2ECF0E0808186608083808126
S1130160877F80830895E0ECF0E080818823ECF7BA
S10D01708091C6000895F894FFCFB3
S9030000FC
