S01B0000444D6F746F725F6C696E65666F6C6C6F7765722E7372656343
S11300000C9434000C9446000C9446000C94460066
S11300100C9446000C9446000C9446000C94460044
S11300200C9446000C9446000C9446000C94460034
S11300300C9446000C9446000C9446000C94460024
S11300400C9446000C9446000C9446000C94460014
S11300500C9446000C9446000C9446000C94460004
S11300600C9446000C94460011241FBECFEFD8E038
S1130070DEBFCDBF21E0A0E0B1E001C01D92A03001
S1130080B207E1F70E9448000C9487020C94000028
S1130090CF93DF93CDB7DEB7AC970FB6F894DEBF3E
S11300A00FBECDBFFE01319688E2DF011D928A9515
S11300B0E9F73E01B5E26B0E711C1E01E9E22E0E5A
S11300C0311C0F2EFBE94F2E512CF02D8E010F5FAA
S11300D01F4FF80184819581A681B7818193919303
S11300E0A193B193E615F705A9F78DA09EA0AFA043
S11300F0B8A4C12CD12CE12CF12CD8012D913D9127
S11301004D915D918D016C2D7D2D8E2D9F2D0E9425
S1130110F100C62ED72EE82EF92E0215130569F725
S113012029813A814B815C81C501B4010E94F000B0
S113013020E030E040E050E00E941A0269A77AA76C
S11301408BA79CA720E030E040E050E06C2D7D2D93
S11301508E2D9F2D0E941A02A50194010E94F10088
S11301609B01AC0169A57AA58BA59CA50E94F10011
S11301700E945D019201261B370B65567F4FC90112
S1130180992314F480E090E0772314F460E070E0A5
S1130190E3EBF0E010828F3F910511F00CF08FEF4C
S11301A0A4EBB0E08C9317BC6F3F710519F014F009
S11301B06FEF70E0072E000C880B990B0E948E01E4
S11301C023EC35EF48E85FE30E941A020E945D01C8
S11301D068BDE3EFF1E03197F1F700C0000076CF9E
S11301E05058BB27AA270E9408010C94E0010E94E2
S11301F0D20138F00E94D90120F039F49F3F19F45C
S113020026F40C94CF010EF4E095E7FB0C94C9019D
S1130210E92F0E94F10158F3BA17620773078407A4
S1130220950720F079F4A6F50C9413020EF4E095EA
S11302300B2EBA2FA02D0B01B90190010C01CA019C
S1130240A0011124FF27591B99F0593F50F4503E47
S113025068F11A16F040A22F232F342F4427585F39
S1130260F3CF469537952795A795F0405395C9F751
S11302707EF41F16BA0B620B730B840BBAF0915009
S1130280A1F0FF0FBB1F661F771F881FC2F70EC0A8
S1130290BA0F621F731F841F48F48795779567957B
S11302A0B795F7959E3F08F0B0CF9395880F08F067
S11302B09927EE0F9795879508950E94F90188F084
S11302C09F5798F0B92F9927B751B0F0E1F0660F16
S11302D0771F881F991F1AF0BA95C9F714C0B13057
S11302E091F00E941302B1E008950C941302672F59
S11302F0782F8827B85F39F0B93FCCF38695779586
S11303006795B395D9F73EF490958095709561956E
S11303107F4F8F4F9F4F0895E89409C097FB3EF499
S113032090958095709561957F4F8F4F9F4F99233E
S1130330A9F0F92F96E9BB279395F69587957795BC
S11303406795B795F111F8CFFAF4BB0F11F460FF7C
S11303501BC06F5F7F4F8F4F9F4F16C0882311F0D4
S113036096E911C0772321F09EE8872F762F05C0E8
S1130370662371F096E8862F70E060E02AF09A9583
S1130380660F771F881FDAF7880F9695879597F978
S1130390089597F99F6780E870E060E008959FEF03
S11303A080EC089500240A94161617061806090608
S11303B0089500240A9412161306140605060895D7
S11303C0092E0394000C11F4882352F0BB0F40F45F
S11303D0BF2B11F460FF04C06F5F7F4F8F4F9F4F9F
S11303E0089557FD9058440F551F59F05F3F71F021
S11303F04795880F97FB991F61F09F3F79F0879588
S11304000895121613061406551FF2CF4695F1DF10
S113041008C0161617061806991FF1CF86957105A0
S1130420610508940895E894BB2766277727CB01D4
S113043097F908950E942D020C94E0010E94D201C4
S113044038F00E94D90120F0952311F00C94C901D1
S11304500C94CF0111240C9414020E94F10170F346
S1130460959FC1F3950F50E0551F629FF001729F55
S1130470BB27F00DB11D639FAA27F00DB11DAA1F64
S1130480649F6627B00DA11D661F829F2227B00DB1
S1130490A11D621F739FB00DA11D621F839FA00D3C
S11304A0611D221F749F3327A00D611D231F849F8C
S11304B0600D211D822F762F6A2F11249F575040E3
S11304C09AF0F1F088234AF0EE0FFF1FBB1F661F5E
S11304D0771F881F91505040A9F79E3F510580F027
S11304E00C94C9010C9414025F3FE4F3983ED4F3D6
S11304F0869577956795B795F795E7959F5FC1F7CB
S1130500FE2B880F911D9695879597F90895F89479
S1050510FFCF17
S9030000FC
