S01B0000444D6F746F725F6C696E65666F6C6C6F7765722E7372656343
S11300000C9434000C943E000C943E000C943E007E
S11300100C943E000C943E000C943E000C943E0064
S11300200C943E000C943E000C943E000C943E0054
S11300300C943E000C943E000C943E000C943E0044
S11300400C943E000C943E000C943E000C943E0034
S11300500C943E000C943E000C943E000C943E0024
S11300600C943E000C943E0011241FBECFEFD8E048
S1130070DEBFCDBF0E9440000C9499000C94000098
S11300800E9450000E9457000E94850082E3A3EB67
S1130090B0E0E4EBF0E087BD88BD8C938083FBCFB8
S11300A0E1E6F0E080818068808310820895239ADD
S11300B08AB188668AB984B5836A84BD84B5837A33
S11300C084BD85B5836085BD85B5837085BD16BC4B
S11300D010926E0017BC18BCE0EBF0E08081836ADC
S11300E080838081837A8083E1EBF0E08081846087
S11300F080838081847080831092B200109270009B
S11301001092B3001092B400089584E090E09093AC
S1130110C5008093C400E1ECF0E0808188618083B5
S1130120E2ECF0E08081866080838081877F808339
S10901300895F894FFCFCE
S9030000FC
