:100000000C9475000C9487000C9487000C94870066
:100010000C9487000C9487000C9487000C94870044
:100020000C9487000C9487000C9487000C94870034
:100030000C9487000C9487000C9487000C94870024
:100040000C9487000C9487000C9487000C94870014
:100050000C9487000C9487000C9487000C94870004
:100060000C9487000C94870007634236B79BD8A78F
:100070001A39685618AEBAAB558C1D3CB7CC5763CD
:10008000BD6DEDFD753EF6177231BF000000803F7B
:1000900008000000BE922449123EABAAAA2ABECD97
:1000A000CCCC4C3E00000080BEABAAAAAA3E000009
:1000B0000000BF000000803F000000000008417801
:1000C000D3BB4387D1133D190E3CC3BD4282AD2B38
:1000D0003E68EC8276BED98FE1A93E4C80EFFFBE30
:1000E00001C4FF7F3F000000000011241FBECFEFBE
:1000F000D8E0DEBFCDBF21E0A0E0B1E001C01D929D
:10010000A032B207E1F70E9489000C948E050C948E
:100110000000CF93DF93CDB7DEB7AC970FB6F8945E
:10012000DEBF0FBECDBFFE01319688E2DF011D921A
:100130008A95E9F70E947A01BFE3E2E4FFE0B1505B
:10014000E040F040E1F700C00000412C512C3E019E
:1001500029E2620E711C0E94D601CE0101964C016B
:100160000F2EF0E02F2EF1E03F2EF02D7C0100E06D
:1001700010E0D12CC12CB42CA52CF70184819581E1
:10018000A681B78181939193A193B1937F01D1010E
:100190006D917D918D919D911D0120E030E0442D68
:1001A000552D0E944402882309F1B801012E000C4C
:1001B000880B990B0E947A029B01AC0160E070E011
:1001C00080E690E40E94D70120E030E040E450E473
:1001D0000E9497039B01AC016D2D7C2D8B2D9A2DD8
:1001E0000E94D801D62EC72EB82EA92E0F5F1F4F02
:1001F0000930110511F68D2D9C2DAB2DBA2D8DA337
:100200009EA3AFA3B8A72AE037ED43EA5CE36D2DC8
:100210007C2D8B2D9A2D0E942A0369A77AA78BA784
:100220009CA7E12CF12C042D152DF4012191319185
:10023000419151914F016E2D7F2D802F912F0E9462
:10024000D801E62EF72E082F192F8614970469F788
:1002500029813A814B815C816D2D7C2D8B2D9A2DCE
:100260000E94D70120E030E0442D552D0E942A0342
:100270004B015C0120E030E0442D552D6E2D7F2D8B
:10028000802F912F0E942A0329A53AA54BA55CA592
:100290000E94D8019B01AC01C501B4010E94D801A4
:1002A0000E9449022BE930E0261B370B65567F4F31
:1002B000C901992314F480E090E0772314F460E0FE
:1002C00070E0A3EBB0E01C928F3F910511F00CF0B1
:1002D0008FEFE4EBF0E0808317BC6F3F710511F006
:1002E0000CF06FEF68BD83EF91E00197F1F700C06C
:1002F000000031CF239A8AB188668AB984B1887F99
:1003000084B9579884B5836A84BD84B5837A84BDE3
:1003100085B5836085BD85B5837085BD16BC10929B
:100320006E0017BC18BCE0E8F0E08081836A80832F
:100330008081837A8083E1E8F0E080818B60808334
:1003400080818B70808310928200109285001092C1
:10035000840010926F001092870010928600109215
:1003600089001092880010928B0010928A00E0EBB6
:10037000F0E08081836A80838081837A8083E1EBEF
:10038000F0E080818460808380818470808310921B
:10039000B200109270001092B3001092B400E1E627
:1003A000F0E080818068808310820895089550581D
:1003B000BB27AA270E94EF010C94F0020E94E202E0
:1003C00038F00E94E90220F039F49F3F19F426F436
:1003D0000C94DF020EF4E095E7FB0C94D902E92FB0
:1003E0000E94010358F3BA17620773078407950741
:1003F00020F079F4A6F50C9423030EF4E0950B2E6F
:10040000BA2FA02D0B01B90190010C01CA01A00166
:100410001124FF27591B99F0593F50F4503E68F1C1
:100420001A16F040A22F232F342F4427585FF3CF02
:10043000469537952795A795F0405395C9F77EF4D3
:100440001F16BA0B620B730B840BBAF09150A1F01C
:10045000FF0FBB1F661F771F881FC2F70EC0BA0FA2
:10046000621F731F841F48F4879577956795B7952A
:10047000F7959E3F08F0B0CF9395880F08F0992725
:10048000EE0F9795879508950E94B50208F481E0D4
:1004900008950E94090388F09F5798F0B92F992773
:1004A000B751B0F0E1F0660F771F881F991F1AF05F
:1004B000BA95C9F714C0B13091F00E942303B1E09E
:1004C00008950C942303672F782F8827B85F39F09D
:1004D000B93FCCF3869577956795B395D9F73EF4F8
:1004E00090958095709561957F4F8F4F9F4F0895A0
:1004F000E89409C097FB3EF49095809570956195BE
:100500007F4F8F4F9F4F9923A9F0F92F96E9BB2773
:100510009395F695879577956795B795F111F8CFEF
:10052000FAF4BB0F11F460FF1BC06F5F7F4F8F4F5A
:100530009F4F16C0882311F096E911C0772321F050
:100540009EE8872F762F05C0662371F096E8862FE8
:1005500070E060E02AF09A95660F771F881FDAF73F
:10056000880F9695879597F90895990F0008550F6C
:10057000AA0BE0E8FEEF16161706E807F907C0F029
:1005800012161306E407F50798F0621B730B840B31
:10059000950B39F40A2661F0232B242B252B21F40B
:1005A00008950A2609F4A140A6958FEF811D811DAB
:1005B000089597F99F6780E870E060E008959FEFE5
:1005C00080EC089500240A941616170618060906EA
:1005D000089500240A9412161306140605060895B9
:1005E000092E0394000C11F4882352F0BB0F40F441
:1005F000BF2B11F460FF04C06F5F7F4F8F4F9F4F81
:10060000089557FD9058440F551F59F05F3F71F002
:100610004795880F97FB991F61F09F3F79F0879569
:100620000895121613061406551FF2CF4695F1DFF2
:1006300008C0161617061806991FF1CF8695710582
:10064000610508940895E894BB2766277727CB01B6
:1006500097F908950E943D030C94F0020E94E20273
:1006600038F00E94E90220F0952311F00C94D90291
:100670000C94DF0211240C9424030E94010370F3F4
:10068000959FC1F3950F50E0551F629FF001729F37
:10069000BB27F00DB11D639FAA27F00DB11DAA1F46
:1006A000649F6627B00DA11D661F829F2227B00D93
:1006B000A11D621F739FB00DA11D621F839FA00D1E
:1006C000611D221F749F3327A00D611D231F849F6E
:1006D000600D211D822F762F6A2F11249F575040C5
:1006E0009AF0F1F088234AF0EE0FFF1FBB1F661F40
:1006F000771F881F91505040A9F79E3F510580F009
:100700000C94D9020C9424035F3FE4F3983ED4F395
:10071000869577956795B795F795E7959F5FC1F7AC
:10072000FE2B880F911D9695879597F90895FA01EC
:10073000EE0FFF1F309621053105A1F161157105FE
:1007400061F48038BFE39B0749F1689490388105D4
:1007500061F08038BFEF9B0741F099234AF5FF3FD6
:10076000E1053105210519F1E8940894E795D901CF
:10077000AA2329F4AB2FBE2FF85FD0F310C0FF5F80
:1007800070F4A695E0F7F73950F019F0FF3A38F415
:100790009F779F930DD00F9007FC9058089546F0D7
:1007A0000C94DF0260E070E080E89FE308954FE77B
:1007B0009F775F934F933F932F930E9492042F91C3
:1007C0003F914F915F910E942A030C94EF0329F40B
:1007D00016F00C94D9020C9423030C94DF020E94AF
:1007E0000903A8F39638A0F707F80F92E8942BE3D3
:1007F0003AEA48EB5FE70E9440030F920F920F9294
:100800004DB75EB70F920E94DA04E8E6F0E00E946E
:1008100021044F915F91EF91FF91E595EE1FFF1F2E
:1008200049F0FE57E0684427EE0F441FFA95E1F7C0
:100830004195550B0E9454040F9007FE0C944804F8
:100840000895DF93CF931F930F93FF92EF92DF9260
:100850007B018C01689406C0DA2EEF010E943D03F3
:10086000FE01E894A5912591359145915591A6F306
:10087000EF010E94EF01FE019701A801DA9469F7E8
:10088000DF90EF90FF900F911F91CF91DF9108952E
:100890009B01AC0160E070E080E89FE30C940E05E2
:1008A0000C94D9020C9480050E940903D8F3992373
:1008B000C9F3940F511DA3F39150504094F059F097
:1008C000882332F0660F771F881F91505040C1F780
:1008D0009E3F51052CF7880F911D9695879597F9A6
:1008E00008955F3FACF0983E9CF0BB2786957795C6
:1008F0006795B79508F4B1609395C1F7BB0F58F7AA
:1009000011F460FFE8CF6F5F7F4F8F4F9F4FE3CFB2
:100910000C94240316F00C9480050C94DF02689468
:100920000C94D9020E940903A8F39923C1F3AEF3F2
:10093000DF93CF931F930F93FF92C92FDD27882357
:100940002AF02197660F771F881FDAF720E030E042
:1009500040E85FEB9FE3883920F0803E38F0219635
:100960008F770E94D801E0E9F0E004C00E94D8012E
:10097000EDEBF0E00E9421048B01BE01EC01FB2EA7
:100980006F5771097595771F880B990B0E947A0232
:1009900028E132E741E35FE30E943D03AF2D980178
:1009A000AE01FF900F911F91CF91DF910E94EF0157
:1009B0000C94F002FA01DC01AA0FBB1F9B01AC01F1
:1009C000BF5728F4222733274427507820C0B75137
:1009D00090F4AB2F0024469537952795011CA395DD
:1009E000D2F3002071F0220F331F441FB395DAF3C6
:1009F0000ED00C94D70161307105A0E88A07B94682
:100A000030F49B01AC0166277727882790783096D1
:100A100021F0208331834283538308950E9422056D
:100A20000C94F0020E94E90258F00E94E20240F0A9
:100A300029F45F3F29F00C94D90251110C9424033E
:100A40000C94DF020E94010368F39923B1F355234C
:100A500091F3951B550BBB27AA27621773078407D1
:100A600038F09F5F5F4F220F331F441FAA1FA9F367
:100A700035D00E2E3AF0E0E832D091505040E69555
:100A8000001CCAF72BD0FE2F29D0660F771F881FB6
:100A9000BB1F261737074807AB07B0E809F0BB0BA9
:100AA000802DBF01FF2793585F4F3AF09E3F5105BD
:100AB00078F00C94D9020C9424035F3FE4F3983E41
:100AC000D4F3869577956795B795F7959F5FC9F7A6
:100AD000880F911D9695879597F90895E1E0660F27
:100AE000771F881FBB1F621773078407BA0720F0A0
:100AF000621B730B840BBA0BEE1F88F7E095089509
:100B00009F3F31F0915020F4879577956795B79581
:100B1000880F911D9695879597F90895F894FFCFC2
:00000001FF
