:020000040800F2
:1000000008040020C90000082D0700085901000855
:1000100000000000000000000000000000000000E0
:10002000000000000000000000000000CB080008F5
:100030000000000000000000C9080008CD0800080A
:10004000DB00000800000000DB000008DB00000807
:10005000DB000008DB000008DB000008DB00000814
:1000600000000000DB000008DB000008DB000008E7
:10007000DB000008DB000008DB00000800000000D7
:10008000DB0000080000000000000000DB000008AA
:1000900000000000DB000008DB000008DB000008B7
:1000A00000000000DB00000800000000DB0000088A
:1000B0000448854600F03EF800480047AD090008B6
:1000C000C046C04608040020044880470448004752
:1000D000FEE7FEE7FEE7FEE7FEE7FEE78D09000824
:1000E000B100000830B50B46014600202022012453
:1000F00009E00D46D5409D4205D31D469540491B5C
:100100002546954040191546521E002DF1DC30BDA4
:10011000D2B201E00270401C491EFBD2704700229F
:10012000F6E710B513460A4604461946FFF7F0FFF6
:10013000204610BD064C0125064E05E0E36807CCBD
:100140002B430C3C98471034B442F7D3FFF7B4FF6D
:10015000F4090008140A0008FEE7000070B583687F
:100160000022DB07DB0F02D00122104670BD8C6835
:100170004B68C5682343CC68054E35402C43234368
:10018000C360036909689B009B080B430361ECE7AC
:10019000C73FFFFF30B583680022DB07DB0F02D0CB
:1001A0000122104630BD18C94D6823430C68896888
:1001B0002C4323430B43C168024C21400B43C360D3
:1001C000EFE700003CC2FEFF08B504494A6902435C
:1001D0004A6149690140009108BD000000100240D9
:1001E00008B50449CA690243CA61C969014000915E
:1001F00008BD00000010024008B504498A690243A6
:100200008A6189690140009108BD00000010024028
:10021000F0B500244DE00123A3401A4048D04B68BC
:10022000012B01D0022B10D18E68856813465343F1
:100230005F00DF19BD4373431D438560CD680B68C4
:1002400046689E436B431E4346600F69C66813466B
:1002500053435D005D19AE435F433E43C6604E6845
:10026000022E1FD1FF2A0ED817464A69066A944605
:100270001A467A437A431701BF1ABE4367467A4348
:10028000164306620EE0160A324672434F69724305
:100290007243BC461601B71A466ABE4367467A43A4
:1002A000164346624A6806685343AE431E430660DF
:1002B000641C0A681346E340ADD10020F0BD30B5A0
:1002C00002685208520002608C68CA6803681F25E1
:1002D0002D021202AB432243134303604A680261BA
:1002E000026801231A43026083680122D203934308
:1002F00083608C690B6985682343ED0AED021D4319
:1003000085600B69002B02D08368134383600C68FF
:10031000036803252D05AB43234303604B69416804
:10032000914319434160002030BD000010B57D218C
:10033000C900FFF7D7FE0449401E486100208861CC
:100340000520086110BD000000E000E001490860E0
:10035000704700000000002070B50268174B184D70
:10036000984201D0A84203D17024A2434C68224392
:10037000144E154C984208D0A84206D0134DA842FE
:1003800003D0B04201D0A04204D103252D02AA43DC
:10039000CD682A4302608A68C2620A8882629842F3
:1003A00003D0B04201D0A04201D1097C0163416970
:1003B000012211434161002070BD0000002C01406A
:1003C000000400400044014000480140002000407B
:1003D00070B50B460121012B36D0102B38D0FF3BD6
:1003E0005B1E3AD00F242402A3422BD1016A0125BF
:1003F0002D03A9430162036A4168C469732636026A
:10040000B4431668360234436E00B34316693603AC
:100410003343AB4355682D032B43124DA84205D0FF
:10042000114DA84202D0114DA84205D10125AD03BE
:10043000A9439569AD0129434160C461D168016454
:1004400003620021084670BD114600F071F902E018
:10045000114600F0AFF90146F4E7114600F0EEF95D
:10046000F9E70000002C0140004401400048014031
:10047000F0B58FB000200B900C900D900E901421D1
:1004800006A8FFF74CFE18216846FFF748FE01203A
:100490004002FFF7B1FE01204004FFF795FE032064
:1004A0000190002004900127092000976946C006AA
:1004B000FFF7AEFE02200090032001900020049080
:1004C00009206946C006FFF7A3FE03200190002023
:1004D00004900425092000956946C006FFF798FEA0
:1004E0000320019000200490082609200096694608
:1004F000C006FFF78DFE1020009003200190002021
:10050000049009206946C006FFF782FE2020009073
:10051000032001900020049009206946C006FFF7DF
:1005200077FE4020009003200190002004900920D5
:100530006946C006FFF76CFE802000900320019002
:100540000020049009206946C006FFF761FE204C98
:10055000A06A3843A062A16A02200143A162A06A96
:100560002843A062A06A3043A062A16A1020014320
:10057000A162A16A20200143A162A16A4020014337
:10058000A162A16A80200143A16200200B900C901F
:100590000D900E900BA92046FFF7E0FD002006907D
:1005A000079008900A9006A909972046FFF7F2FDE8
:1005B000E068A843E0606069C008C00060616068EE
:1005C000A84360606068B04360600FB0F0BD000099
:1005D00000240140F0B58DB01C2106A8FFF79FFD57
:1005E00018216846FFF79BFD01204004FFF7ECFD52
:1005F00001240120042740020225032603946A46B1
:100600000597049461C209206946C006FFF700FE01
:10061000A00203946A460597049461C209206946C2
:10062000C006FFF7F5FD6005FFF7DAFD114CE06845
:10063000E1138843E0602068090188432060216855
:1006400028048143216000200B49079106900890FF
:1006500009900A900B900C9006A92046FFF72FFEF8
:100660006068290608436060E06804490840E0606B
:100670000DB0F0BD005400405D3E302001F8FFFF9A
:10068000F0B595B014216846FFF749FD202105A873
:10069000FFF745FD18210DA8FFF741FDFF200130B0
:1006A000FFF79EFD0024684604801D4E01940294CD
:1006B000694630460394FFF74FFE30688021884337
:1006C000306018480178164818300D182868154F02
:1006D0000821FF1D3A78914008432860602005906A
:1006E00006940794089405AA012109943046FFF75F
:1006F0006FFE28683A780421914088432860700191
:10070000FFF762FD02200D900E900F94109411944B
:100710000DA912940448FFF77BFD15B0F0BD000051
:1007200000200040E4090008000400487047000071
:1007300030B5026A520852000262026A4368846954
:100740007025A408A400AC430D682C430225AA43DD
:100750000D692A4352084D6852002A43124DA8429F
:1007600005D0124DA84202D0114DA84214D108253F
:10077000AA434D69AD002A430425AA438D68AD0004
:100780002A43FF250135AB438D692B4301256D02BB
:10079000AB43CD696D002B4343608461C9684163FD
:1007A0000262002030BD0000002C014000440140E6
:1007B0000048014070B5026A1025AA430262026A2D
:1007C0004368846973263602B4430E6836023443A4
:1007D0002026B2430E6936013243AA434D682D01EB
:1007E0002A43134DA84205D0124DA84202D0124D03
:1007F000A84215D18025AA434D69AD012A43402561
:10080000AA438D68AD012A430125AD02AB438D6932
:10081000AD002B430125ED02AB43CD69ED002B4329
:1008200043608461C96881630262002070BD00007A
:10083000002C0140004401400048014070B5026AAC
:10084000FF250135AA430262026A4368C469702623
:10085000A408A400B4430E6834436E00B2430E698A
:1008600036023243AA434D682D022A43134DA84253
:1008700005D0134DA84202D0124DA84217D1012530
:10088000ED02AA434D69AD022A430125AD02AA43F8
:100890008D68AD022A4301252D03AB438D692D01DF
:1008A0002B4301256D03AB43CD696D012B434360A1
:1008B000C461C968C1630262002070BD002C0140A0
:1008C00000440140004801407047704770470000F5
:1008D00070B52B48012102688A430A430260006810
:1008E000284C21680120000401432160216889030C
:1008F000C90FFBD0616B012211436163616B8907F2
:10090000C90FFBD0616BF8229143802211436163D0
:1009100061683D221204914301436160E06A00096D
:100920000001E06220680121090608432060206878
:100930008001C00FFBD06068F02188436060606870
:1009400007210902884360606168022089088900E4
:10095000014361600C21606808400828FBD10A4D02
:100960002846FFF7E3FC2846FFF7F0FC606B042104
:1009700088436063206B102188430843206370BD67
:100980000020024000100240006CDC02704702E0D0
:1009900008C8121F08C1002AFAD17047704700200A
:1009A00001E001C1121F002AFBD170470120FFF7AF
:1009B00023FC01200007FFF713FCFFF789FF01204C
:1009C0008005FFF701FC01204004FFF7FDFB01203B
:1009D0008004FFF7F9FBFFF74BFDFFF7FBFDFFF787
:1009E0004FFEFEE7000000000404040000080000C1
:1009F00000080000140A00080000002004000000A5
:100A00008E090008180A00080400002004040000F1
:080A10009E09000800127A00A3
:04000005080000B13E
:00000001FF
