:0A0000000C945C000C9400000C94BA
:10000A0000000C9400000C9400000C9400000C9466
:10001A0000000C9400000C9400000C9400000C9456
:10002A0000000C9400000C9400000C9400000C9446
:10003A0000000C9400000C9400000C9400000C9436
:10004A0000000C9400000C9400000C9400000C9426
:10005A0000000C9400000C9400000C9400000000B6
:10006A000000000000000000000000000000000086
:10007A000000000000000000000000000000000076
:10008A000000000000000000000000000000000066
:10009A000000000000000000000001002D4E414E4B
:1000AA0000494E46000001000803A4000000F8942D
:1000BA00EE27EFBBF1E0F5BFE5BFF8E1A895A4B7DD
:1000CA00A77FA4BFF0936000E09360008DE0A2E0F8
:1000DA00BB27ED938A95E9F780E098E0A0E0B1E0CC
:1000EA00ED930197E9F7E0EBF0E0859195910097A0
:1000FA0061F0A591B59105901590BF01F0010590A9
:10010A000D920197E1F7FB01F0CFE0E0EEBBEFEFD4
:10011A00EDBFE8E0EEBFC0E0D3E00C949400EC97AA
:10012A008CE3A0E0B0E0E8E6F0E00E946E0610E0A2
:10013A0020E030E040E050E0B6D0E0E0E88BE98B28
:10014A00EA8BEB8B10E01930A8F40E94DE03EA0F69
:10015A00FB1F0F01E12FEF5FF0E0DE0154960E94D2
:10016A001E06AE0FBF1F0E942E06D0010E94340643
:10017A001F5FE9CF32D1E8AFF9AF6AAF7BAFA8AD65
:10018A00B9AD8AAD9BAD0E94E5030E946305EC8779
:10019A00FD876E877F8710E01A3090F40E94DE0395
:1001AA00AE0FBF1F0E942E06A889B9898A899B892A
:1001BA000E941305E88BF98B6A8B7B8B1F5FECCF50
:1001CA00A889B9898A899B890E94EA030E946305E2
:1001DA00E887F9876A877B87AC89BD898E899F8979
:1001EA00E8ADF9AD6AAD7BAD0E940C05A0E0B0E0C8
:1001FA0080E090E00E946305EC83FD836E837F8339
:10020A000E94EF03AC85BD858E859F850E941305EC
:10021A000E94F4030E9413050E9443060E94F903F8
:10022A00ABE9B0E0AE1BBF0B9D010E94F903E55696
:10023A00FF4FAF012030E1E03E071CF02FEF30E026
:10024A0004C0332312F420E030E04030E1E05E07DE
:10025A001CF04FEF50E004C0552312F440E050E088
:10026A00E0E0E093B300F9010E94FE030E94030458
:10027A000E946305A4EBB0E00E94A004EC93E0E0C6
:10028A00E7BDFA010E94FE03A3ECB5EF88E89FE3FD
:10029A000E9463050E94A004E8BDA2E0B0E00E94AB
:1002AA0046044BCFFFCF239AEAB1E866EAB9E4B134
:1002BA00E87FE4B95798E4B5E36AE4BDE4B5E37AC4
:1002CA00E4BDE5B5E360E5BDE5B5E370E5BDE0E0B5
:1002DA00E6BDE0936E00E7BDE8BDE0918000E36A09
:1002EA00E0938000E0918000E37AE0938000E0915F
:1002FA008100EB60E0938100E0918100EB70E09374
:10030A008100E0E0E0938200E0938500E0938400BE
:10031A00E0936F00E0938700E0938600E093890002
:10032A00E0938800E0938B00E0938A00E091B000AC
:10033A00E36AE093B000E091B000E37AE093B000A2
:10034A00E091B100E460E093B100E091B100E470A3
:10035A00E093B100E0E0E093B200E0937000E09334
:10036A00B300E093B400E0916100E068E0936100BB
:10037A00E0E0E09361000895E9B1E470A0E0B3E041
:10038A000E940804A1E0B3E0E9B1E0710E94080408
:10039A00A2E0B3E0E6B1E0720E940804A3E0B3E091
:1003AA00E6B1E0710E940804A4E0B3E0E6B1E870A7
:1003BA000E940804A5E0B3E0E6B1E4700E940804D4
:1003CA00A6E0B3E0E6B1E2700E940804A7E0B3E059
:1003DA00E6B1E1700E94080408952497E0E0E883FA
:1003EA00E983EA83EB831A9310E0C6DF10E0183042
:1003FA0038F5E12FF0E0E050FD4FE081E030F1F414
:10040A00E12FFF27662777270E94D904A0E0B0E0F2
:10041A0080E690E40E940E040E944806A0E0B0E044
:10042A0080E490E40E948E03A981BA818B819C8129
:10043A000E941305E983FA836B837C831F5FD7CFFE
:10044A00E981FA816B817C811881259608950E9441
:10045A004D067B816A81F981E88177FB770F67FD19
:10046A007160972F9E5781F078F0983190F4AA27FF
:10047A00BB27882708948795B795A7959A95D1F7AA
:10048A00EA23FB23682305C0E8947727EE27FF2792
:10049A0066276F77769508F4606877F9A991B9911C
:1004AA0089919991EA17FB076807790797FB0895DD
:1004BA000E944D060E943E060E942C020E9443069C
:1004CA0019F40E94130407C0E6F70E9413040E945D
:1004DA0003040E940C05249608950E944D06249751
:1004EA001A930A930E9416040E9463062CF0EFEFF7
:1004FA00FFEF6FE77FEF71C00E941B040E9448065E
:10050A00ADB7BEB711971F930F930E9450040F9176
:10051A001F910E9420040E941604E3EFF4E065E3B1
:10052A007FE30E94F60540F40E9425040E94130509
:10053A000E942004015010400E941B040E940304E0
:10054A000E940C057F936F93FF93EF930E941B0405
:10055A000E9403040E941305AF91BF918F919F914E
:10056A000E94B1050E9420040E9425040E942704CB
:10057A00A6E2B2E485E69FE30E942E04EEE4F1E1EE
:10058A0064E570E40E940E040E9416040E9463054A
:10059A007F936F93FF93EF930E943304ADE4B1E12D
:1005AA0084ED9FE30E940C05AF91BF918F919F91BB
:1005BA000E94B1057F936F93FF93EF93F8010E9416
:1005CA00FE03A8E1B2E781E39FE30E946305AF91CE
:1005DA00BF918F919F910E941305198108812A96D4
:1005EA0008950E944D0628971A930A930E94380488
:1005FA00E0E5FCEA6EEA72EC0E94F60518F40E9445
:10060A00EA0383C0EA85FB856C857D850E945F06C7
:10061A0019F40E94E50379C00E943804E8E1F2E780
:10062A0061EB72E40E94F60509F010F40C942203BF
:10063A00EFEFFFEF6FE77FE768C00E943804EBE354
:10064A00FAEA68EB7FE30E946305EA87FB876C8717
:10065A007D870E9438042CDF0E94A2048F01F801D2
:10066A000E9438040E94FE030E940E04DF01CB019F
:10067A00E0E0F0E060E07FE30E940E040E942004C4
:10068A000E9425040E942704ADE6BCE48CE69DE3A3
:10069A000E946305A6EAB3EE86EE90E40E94130573
:1006AA000E9416040E9463050E9420040E943304DB
:1006BA00A8E2BDE886EA91E40E941305EA83FB8377
:1006CA006C837D830E941B04AA81BB818C819D81DE
:1006DA000E941305A3EFB4E085EB9FE30E94630534
:1006EA007F936F93FF93EF930E9416040E94330443
:1006FA000E940C05AF91BF918F919F910E94B10505
:10070A000E944806D8010E946104198108812E9628
:10071A0008950E944D0624970E94EF030E945F06E7
:10072A0019F40E94EA0343C0A885B9858A859B8586
:10073A000E94630684F40E943D040E945F0619F435
:10074A000E94E50334C0A885B9858A859B850E94E5
:10075A00420447DF2CC00E943D04DE010E94A2042D
:10076A000E9434060E9413040E94D904DF01CB01BF
:10077A000E943D040E94690619F00E94EA0317C00C
:10078A000E94EF030E946D04DF01CB010E94420424
:10079A0028DFE887F9876A877B87E881E17019F49F
:1007AA000E94EF0304C00E94EF030E946D042C967E
:1007BA000895E12FF0E0DE0154960E941E06089586
:1007CA00E0E0F0E060E87FE30895E0E0F0E060E078
:1007DA0070E00895E885F9856A857B850895AC817E
:1007EA00BD818E819F8108950E9439060E94A004CE
:1007FA0008950E9429060E94D9040895A0E0B0E055
:10080A0080E89FE30895EE23E1E009F4E0E0EC9349
:10081A0008950E9452060E940C0508950E94390606
:10082A000895AE81BF81888599850895EE81FF81FB
:10083A00688579850895EE83FF83688779870895A7
:10084A00F5DFEFCF0E946305EA83FB836C837D8328
:10085A0008950E946305DF01CB010895EA81FB81B7
:10086A006C817D810895AA85BB858C859D850895B7
:10087A00EC81FD816E817F8108950E947202AFDF53
:10088A00E8CF109639F088E893E10197F1F7A89537
:10089A001197C9F70895E991F9916991799177FBCF
:1008AA00660F771F88277E57880B7D938C937EE788
:1008BA00769567956EF00895E991F9916991799124
:1008CA0077FB660F771F7A0F769567950EF0089576
:1008DA0030976040704009F070580895552342F4EB
:1008EA00503811F4E0FF04C03196691F791F6BF08C
:1008FA0050E8572711F45F93CFC05F3F31F0660F7E
:10090A00000C57956795752F08955F9300200AF09C
:10091A00CFC0C8C050E8192E1522880F991F9527F5
:10092A00550F879550E8072E0522660F771F752702
:10093A00550F67950895689401C0E8945F93F2DFB4
:10094A00703818F07F3F08F4A7C056E1571BAAF485
:10095A00519558300EF4593030F0EFEFFFEF6FEF4A
:10096A007FE777F91AC077275523B9F0EE0FFF1FF3
:10097A00661F771F5A95D1F710C07727583028F08D
:10098A00EF2FF62F672F5850F9CF552331F0769570
:10099A006795F795E7955A95D1F700200AF441D162
:1009AA005F910895689401C0E89430976040704060
:1009BA00B1F0002426F0772312F4009432D1172ED6
:1009CA007EE1112032F07A95EE0FFF1F661F111C8F
:1009DA00F9CFEF2FF62F612D5F938ADF5F9108958C
:1009EA004F93AF01FD01DA01AB01BC01CA01402DF1
:1009FA00012C142E4F910895EA0FFB1F681F0895CA
:100A0A00E095F0956095EF5FFF4F6F4F08955F9304
:100A1A0081DF903871F150E8152604C05F937ADFC0
:100A2A00903839F1703821F1572F591B2BF112F4F4
:100A3A00D7DFFACF583118F0AA27BB2788275830B2
:100A4A0028F0AB2FB82F88275850F9CF552329F013
:100A5A008695B795A7955A95D9F7502D512572F0D5
:100A6A00CBDF38F46795F795E795739513F420C0B3
:100A7A00B7DF3EDF5F910895D8F7FBCFEA1BFB0B88
:100A8A00680B51F010F40094BBDF662392F3EE0F6B
:100A9A00FF1F661F7A95CBF7EE27FF276627772772
:100AAA005F910895EFEFFFEF6FE77FEF5F91089592
:100ABA00EFEFFFEF6FE77FE75F9108955F932ADF1C
:100ACA00703851F3903841F301240894791F23F4C4
:100ADA001CF300203AF3ECCF0F921F932F933F930E
:100AEA004F93112722279927689FA0018F9F302DA6
:100AFA00410D591F6B9F300D411D591F8E9F27D0E5
:100B0A00BF9F25D06A9F23D0BE9F1DD0AF9F1BD009
:100B1A00AE9F110D291F391F491F591FE32FF42FAB
:100B2A00652F522F4F913F912F911F910F9066235E
:100B3A002AF0550FEE1FFF1F661F02C073954BF276
:100B4A00CDDE5F910895100D211D391F02C0200DC1
:100B5A00311D491F591F08955F93DCDE703821F457
:100B6A0011200AF49FCFA4CF903809F495CF01241D
:100B7A000894970B1BF4D4F30020F3CF792F1F931B
:100B8A002F933F934F93112411272227332744276A
:100B9A00552790E2AE17BF078607410730F0AE1B14
:100BAA00BF0B860B410B089401C08894551F221F66
:100BBA00331F111CAA1FBB1F881F441F9A9551F788
:100BCA00F901612D4F913F912F911F91662332F0C8
:100BDA00550FEE1FFF1F661F7A9543F27FDE5F9166
:100BEA00089599239AF0772342F0971748F029F449
:100BFA00AE17BF07860720F031F0989488940895BD
:100C0A009894089408951894889408957723C2F7BD
:100C1A00971798F3A9F7EA17FB07680788F399F378
:100C2A00ECCFF09560957095E195FF4F6F4F7F4F30
:100C3A000895EE0FFF1FEE0FFF1F0895FE2FFF0FFF
:100C4A00FF0B6F2F7F2F08956F2F660F660B762F7E
:100C5A000895ED91FD916D917C9113970895ED930F
:100C6A00FD936D937C930895E881F9816A817B8174
:100C7A000895A881B9818A819B810895E883F983BF
:100C8A006A837B8308957A936A93FA93EA93089521
:100C9A009A938A93BA93AA930895182E862F612D50
:100CAA00192E972F712D1B2EBF2FF12D1A2EAE2F15
:100CBA00E12D0895309760407040089500240A1687
:100CCA000B06080609060895EA17FB07680779075D
:100CDA000895AC0FBD1F05900D928A95E1F708950E
:00000001FF
