:100000000C945C000C9400000C9400000C94000014
:100010000C9400000C9400000C9400000C94000060
:100020000C9400000C9400000C9400000C94000050
:100030000C9400000C9400000C9400000C94000040
:100040000C9400000C9400000C9400000C94000030
:100050000C9400000C9400000C9400000C94000020
:100060000C9400000C940000000000000000000050
:100070000000000000000000000000000000000080
:100080000000000000000000000000000000000070
:100090000000000000000000000000000000000060
:1000A0000000000001002D4E414E00494E46000068
:1000B00001001003A4000000F894EE27EFBBF1E06C
:1000C000F5BFE5BFF8E1A895A4B7A77FA4BFF0935B
:1000D0006000E09360008DE0A2E0BB27ED938A957D
:1000E000E9F780E098E0A0E0B1E0ED930197E9F74F
:1000F000E0EBF0E085919591009761F0A591B591C5
:1001000005901590BF01F00105900D920197E1F760
:10011000FB01F0CFE0E0EEBBEFEFEDBFE8E0EEBFBC
:10012000C0E0D3E00C949400EC978CE3A0E0B0E046
:10013000E8E6F0E00E94990610E020E030E040E0C0
:1001400050E0A2D0E0E0E88BE98BEA8BEB8B10E08B
:100150001930A8F40E940B04EA0FFB1F0F01E12FD6
:10016000F0E03196DE0154960E944F06AE0FBF1F9D
:100170000E945906D0010E945F061F5FE9CF5FD140
:10018000E8AFF9AF6AAF7BAFA8ADB9AD8AAD9BADB3
:10019000E0E0F0E060E271E40E949405EC87FD8706
:1001A0006E877F8710E01A3090F40E940B04AE0F28
:1001B000BF1F0E945906A889B9898A899B890E9414
:1001C0004405E88BF98B6A8B7B8B1F5FECCFA8898A
:1001D000B9898A899B89E0E0F0E060E271E40E94DD
:1001E000E2050E941204E887F9876A877B87ACA939
:1001F000BDA98EA99FA9E8ADF9AD6AAD7BAD0E94FE
:100200003D050E941204EC83FD836E837F830E9470
:100210001904AC85BD858E859F850E9444050E948A
:100220001E040E9444050E946E060E942304E556A7
:10023000FF4F9F010E942304ABE9B0E0AE1BBF0B50
:10024000AD012030E1E03E071CF02FEF30E004C0AC
:10025000332312F420E030E04030E1E05E071CF090
:100260004FEF50E004C0552312F440E050E0E0E0CE
:10027000E093B3002093B400E7BD48BDA2E0B0E036
:100280000E9477045FCFFFCF239AEAB1E866EAB90C
:10029000E4B1E87FE4B95798E4B5E36AE4BDE4B5B6
:1002A000E37AE4BDE5B5E360E5BDE5B5E370E5BD42
:1002B000E0E0E6BDE0936E00E7BDE8BDE0918000C0
:1002C000E36AE0938000E0918000E37AE0938000AD
:1002D000E0918100EB60E0938100E0918100EB70A0
:1002E000E0938100E0E0E0938200E0938500E093FA
:1002F0008400E0936F00E0938700E0938600E09332
:100300008900E0938800E0938B00E0938A00E091FD
:10031000B000E36AE093B000E091B000E37AE093CC
:10032000B000E091B100E460E093B100E091B10071
:10033000E470E093B100E0E0E093B200E09370007D
:10034000E093B300E093B400E0E8E0936100E0E004
:10035000E0936100E0936900EDBBE0936800E0E8A2
:10036000E0BFE0E0E0937B00E0937F00E093C1001A
:10037000E0937A00ECBDE093BC000895E3B1E07235
:10038000A0E0B3E00E942804A1E0B3E0E3B1E07193
:100390000E942804A2E0B3E0E3B1E4700E942804C4
:1003A000A3E0B3E0E3B1E2700E942804A4E0B3E06C
:1003B000E3B1E1700E942804A5E0B3E0E9B1E07880
:1003C0000E942804A6E0B3E0E6B1E1700E94280490
:1003D000A7E0B3E0E6B1E2700E942804A8E0B3E031
:1003E000E6B1E4700E942804A9E0B3E0E6B1E87049
:1003F0000E942804AAE0B3E0E6B1E0710E9428045C
:10040000ABE0B3E0E6B1E0720E942804ACE0B3E0F8
:10041000E9B1E0710E942804ADE0B3E0E9B1E47015
:100420000E942804AEE0B3E0E9B1E2700E94280423
:10043000AFE0B3E0E9B1E1700E9428040895249789
:10044000E0E0E883E983EA83EB831A9310E096DF28
:1004500010E0113138F5103019F1E12FF0E0E050E3
:10046000FD4FE081E030E1F4E12FF0E0A8E0B0E002
:100470000E948306EA1BFB0B0E942E040E94730657
:10048000A0E0B0E080E490E40E94B903A981BA81C1
:100490008B819C810E944405E983FA836B837C8372
:1004A0001F5FD7CFE981FA816B817C811881259606
:1004B00008950E9478067B816A81F981E88177FB43
:1004C000770F67FD7160972F9E5781F078F0983114
:1004D00090F4AA27BB27882708948795B795A795F6
:1004E0009A95D1F7EA23FB23682305C0E894772780
:1004F000EE27FF2766276F77769508F4606877F90F
:10050000A991B99189919991EA17FB076807790731
:1005100097FB08950E9478060E9469060E9459027E
:100520000E946E0619F40E94330405C0E6F70E948B
:1005300033040E943604249608950E947806249776
:100540001A930A930E943D040E948E062CF0EFEF4E
:10055000FFEF6FE77FEF71C00E9442040E947306B5
:10056000ADB7BEB711971F930F930E9481040F91EF
:100570001F910E9447040E943D04E3EFF4E065E30D
:100580007FE30E94270640F40E944C040E94440529
:100590000E944704015010400E9442040E94360409
:1005A0007F936F93FF93EF930E944204A0E0B0E02B
:1005B00080E89FE30E944405AF91BF918F919F9186
:1005C0000E94E2050E9447040E944C040E944E04CF
:1005D000A6E2B2E485E69FE30E945504EEE4F1E171
:1005E00064E570E40E945A040E943D040E94940550
:1005F0007F936F93FF93EF930E945F04ADE4B1E1AB
:1006000084ED9FE30E943D05AF91BF918F919F9133
:100610000E94E2057F936F93FF93EF93F8010E948E
:100620002E04A8E1B2E781E39FE30E949405AF9115
:10063000BF918F919F910E944405198108812A964C
:1006400008950E94780628971A930A930E946404DA
:10065000E0E5FCEA6EEA72EC0E94270618F40E94BC
:10066000690483C0EA85FB856C857D850E948A06C6
:1006700029F4E0E0F0E060E87FE377C00E946404E2
:10068000E8E1F2E761EB72E40E94270609F008F462
:1006900005C0EFEFFFEF6FE77FE767C00E946404DC
:1006A000EBE3FAEA68EB7FE30E949405EA87FB87B5
:1006B0006C877D870E9464042DDF0E94D3048F0124
:1006C0000E9464040E942E040E945A04DF01CB01A0
:1006D000E0E0F0E060E07FE30E945A040E944704FB
:1006E0000E944C040E944E04ADE6BCE48CE69DE3FF
:1006F0000E949405A6EAB3EE86EE90E40E944405BB
:100700000E943D040E9494050E9447040E945F04D9
:10071000A8E2BDE886EA91E40E944405EA83FB83EF
:100720006C837D830E944204AA81BB818C819D8160
:100730000E944405A3EFB4E085EB9FE30E9494057B
:100740007F936F93FF93EF930E943D040E945F0499
:100750000E943D05AF91BF918F919F910E94E2054C
:100760000E947306D8010E949204198108812E9676
:1007700008950E94780624970E9419040E948A0610
:1007800019F40E94690445C0A885B9858A859B85AE
:100790000E948E0694F40E946E040E948A0629F438
:1007A000E0E0F0E060E87FE334C0A885B9858A85A1
:1007B0009B850E94730445DF2CC00E946E04DE01FD
:1007C0000E94D3040E945F060E9433040E940A051F
:1007D000DF01CB010E946E040E94940619F00E9472
:1007E000690417C00E9419040E949E04DF01CB0116
:1007F0000E94730426DFE887F9876A877B87E88190
:10080000E17019F40E94190404C00E9419040E94A6
:100810009E042C960895E12FF0E0DE0154960E948C
:100820004F060895A0E0B0E080E090E00E949405BB
:100830000895E885F9856A857B850895AC81BD8139
:100840008E819F8108950E9464060E94D1040895BC
:10085000EE23E1E009F4E0E0EC9308950E945406F1
:100860000E940A0508950E9464060895A0E0B0E081
:1008700080E89FE30E943D050895AE81BF81888591
:1008800099850895EE81FF81688579850895EE83C5
:10089000FF83688779870895F5DFEFCF0E9494057D
:1008A000EA83FB836C837D8308950E949405DF01B6
:1008B000CB0108950E947D060E943D050895EA81BE
:1008C000FB816C817D810895AA85BB858C859D8582
:1008D0000895E0E0F0E060E070E00895EC81FD81D3
:1008E0006E817F8108950E949D02A8DFDECF109661
:1008F00039F0A89588E893E10197F1F71197C9F7C6
:100900000895E991F9916991799177FB660F771FC5
:1009100088277E57880B7D938C937EE77695679525
:100920006EF00895E991F9916991799177FB660FDD
:10093000771F7A0F769567950EF00895309760408F
:10094000704009F070580895552342F4503811F45E
:10095000E0FF04C03196691F791F6BF050E85727FC
:1009600011F45F93CFC05F3F31F0660F000C5795D5
:100970006795752F08955F9300200AF0CFC0C8C017
:1009800050E8192E1522880F991F9527550F879526
:1009900050E8072E0522660F771F7527550F6795BC
:1009A0000895689401C0E8945F93F2DF703818F0FE
:1009B0007F3F08F4A7C056E1571BAAF45195583061
:1009C0000EF4593030F0EFEFFFEF6FEF7FE777F97C
:1009D0001AC077275523B9F0EE0FFF1F661F771F48
:1009E0005A95D1F710C07727583028F0EF2FF62FFF
:1009F000672F5850F9CF552331F076956795F795C5
:100A0000E7955A95D1F700200AF441D15F910895F6
:100A1000689401C0E894309760407040B1F00024C1
:100A200026F0772312F4009432D1172E7EE11120A4
:100A300032F07A95EE0FFF1F661F111CF9CFEF2FD2
:100A4000F62F612D5F938ADF5F9108954F93AF0179
:100A5000FD01DA01AB01BC01CA01402D012C142EAD
:100A60004F910895EA0FFB1F681F0895E095F095D8
:100A70006095EF5FFF4F6F4F08955F9381DF903870
:100A800071F150E8152604C05F937ADF903839F190
:100A9000703821F1572F591B2BF112F4D7DFFACF01
:100AA000583118F0AA27BB278827583028F0AB2FD9
:100AB000B82F88275850F9CF552329F08695B79538
:100AC000A7955A95D9F7502D512572F0CBDF38F400
:100AD0006795F795E795739513F420C0B7DF3EDF70
:100AE0005F910895D8F7FBCFEA1BFB0B680B51F021
:100AF00010F40094BBDF662392F3EE0FFF1F661F16
:100B00007A95CBF7EE27FF27662777275F91089521
:100B1000EFEFFFEF6FE77FEF5F910895EFEFFFEFEC
:100B20006FE77FE75F9108955F932ADF703851F395
:100B3000903841F301240894791F23F41CF300201A
:100B40003AF3ECCF0F921F932F933F934F931127BC
:100B500022279927689FA0018F9F302D410D591F93
:100B60006B9F300D411D591F8E9F27D0BF9F25D0F1
:100B70006A9F23D0BE9F1DD0AF9F1BD0AE9F110D8B
:100B8000291F391F491F591FE32FF42F652F522F9B
:100B90004F913F912F911F910F9066232AF0550F8F
:100BA000EE1FFF1F661F02C073954BF2CDDE5F91F3
:100BB0000895100D211D391F02C0200D311D491F40
:100BC000591F08955F93DCDE703821F411200AF478
:100BD0009FCFA4CF903809F495CF01240894970BA8
:100BE0001BF4D4F30020F3CF792F1F932F933F935F
:100BF0004F9311241127222733274427552790E2AA
:100C0000AE17BF078607410730F0AE1BBF0B860B40
:100C1000410B089401C08894551F221F331F111CDB
:100C2000AA1FBB1F881F441F9A9551F7F901612D18
:100C30004F913F912F911F91662332F0550FEE1F78
:100C4000FF1F661F7A9543F27FDE5F910895992317
:100C50009AF0772342F0971748F029F4AE17BF07B0
:100C6000860720F031F09894889408959894089419
:100C700008951894889408957723C2F7971798F3E6
:100C8000A9F7EA17FB07680788F399F3ECCFF0950B
:100C900060957095E195FF4F6F4F7F4F0895EE0F70
:100CA000FF1FEE0FFF1F08956F2F660F660B762F45
:100CB0000895ED91FD916D917C9113970895ED93B9
:100CC000FD936D937C930895E881F9816A817B811E
:100CD0000895A881B9818A819B810895E883F98369
:100CE0006A837B8308957A936A93FA93EA930895CB
:100CF0009A938A93BA93AA930895182E862F612DFA
:100D0000192E972F712D1B2EBF2FF12D1A2EAE2FBE
:100D1000E12D0895309760407040089500240A1630
:100D20000B06080609060895EA17FB076807790706
:100D30000895AC0FBD1F05900D928A95E1F70895B7
:00000001FF
