:0E0000000C945C000C9400000C9400000C9416
:10000E0000000C9400000C9400000C9400000C9462
:10001E0000000C9400000C9400000C9400000C9452
:10002E0000000C9400000C9400000C9400000C9442
:10003E0000000C9400000C9400000C9400000C9432
:10004E0000000C9400000C9400000C9400000C9422
:10005E0000000C9400000C94000000000000000052
:10006E000000000000000000000000000000000082
:10007E000000000000000000000000000000000072
:10008E000000000000000000000000000000000062
:10009E0000000000000001002D4E414E00494E466A
:1000AE00000001000803A4000000F894EE27EFBB47
:1000BE00F1E0F5BFE5BFF8E1A895A4B7A77FA4BF0F
:1000CE00F0936000E09360008DE0A2E0BB27ED931B
:1000DE008A95E9F780E098E0A0E0B1E0ED93019712
:1000EE00E9F7E0EBF0E085919591009761F0A5912D
:1000FE00B59105901590BF01F00105900D920197F5
:10010E00E1F7FB01F0CFE0E0EEBBEFEFEDBFE8E093
:10011E00EEBFC0E0D3E00C949400EC978CE3A0E02B
:10012E00B0E0E8E6F0E00E94700610E020E030E07B
:10013E0040E050E0B6D0E0E0E88BE98BEA8BEB8B49
:10014E0010E01930A8F40E94E003EA0FFB1F0F0124
:10015E00E12FEF5FF0E0DE0154960E942006AE0F15
:10016E00BF1F0E943006D0010E9436061F5FE9CFE6
:10017E0032D1E8AFF9AF6AAF7BAFA8ADB9AD8AADFA
:10018E009BAD0E94E7030E946505EC87FD876E8795
:10019E007F8710E01A3090F40E94E003AE0FBF1F6D
:1001AE000E943006A889B9898A899B890E94150503
:1001BE00E88BF98B6A8B7B8B1F5FECCFA889B98993
:1001CE008A899B890E94EC030E946505E887F9875E
:1001DE006A877B87AC89BD898E899F89E8ADF9AD29
:1001EE006AAD7BAD0E940E05A0E0B0E080E090E02D
:1001FE000E946505EC83FD836E837F830E94F1036D
:10020E00AC85BD858E859F850E9415050E94F603DF
:10021E000E9415050E9445060E94FB03ABE9B0E063
:10022E00AE1BBF0B9D010E94FB03E556FF4FAF01B6
:10023E002030E1E03E071CF02FEF30E004C0332306
:10024E0012F420E030E04030E1E05E071CF04FEFAA
:10025E0050E004C0552312F440E050E0E0E0E0939B
:10026E00B300F9010E9400040E9405040E94650576
:10027E00A4EBB0E00E94A204EC93E0E0E7BDFA012B
:10028E000E940004A3ECB5EF88E89FE30E94650589
:10029E000E94A204E8BDA2E0B0E00E9448044BCF49
:1002AE00FFCF239AEAB1E866EAB9E4B1E87FE4B990
:1002BE005798E4B5E36AE4BDE4B5E37AE4BDE5B589
:1002CE00E360E5BDE5B5E370E5BDE0E0E6BDE093D6
:1002DE006E00E7BDE8BDE0918000E36AE093800028
:1002EE00E0918000E37AE0938000E0918100EB6082
:1002FE00E0938100E0918100EB70E0938100E0E0FB
:10030E00E0938200E0938500E0938400E0936F0019
:10031E00E0938700E0938600E0938900E0938800E5
:10032E00E0938B00E0938A00E091B000E36AE093E3
:10033E00B000E091B000E37AE093B000E091B1003C
:10034E00E460E093B100E091B100E470E093B1009D
:10035E00E0E0E093B200E0937000E093B300E0932E
:10036E00B400E0916100E068E0936100E0E0E093AA
:10037E0061000895E9B1E470A0E0B3E00E940A04C0
:10038E00A1E0B3E0E9B1E0710E940A04A2E0B3E09B
:10039E00E6B1E0720E940A04A3E0B3E0E6B1E071B8
:1003AE000E940A04A4E0B3E0E6B1E8700E940A04D9
:1003BE00A5E0B3E0E6B1E4700E940A04A6E0B3E063
:1003CE00E6B1E2700E940A04A7E0B3E0E6B1E17084
:1003DE000E940A0408952497E0E0E883E983EA8303
:1003EE00EB831A9310E0C6DF10E0A12FBB271897FE
:1003FE003CF5E12FF0E0E050FD4FE081E030F1F010
:10040E00E12FFF27662777270E94DB04A0E0B0E0EC
:10041E0080E690E40E9410040E944A06A0E0B0E03C
:10042E0080E490E40E949003A981BA818B819C8123
:10043E000E941505E983FA836B837C831F5FD5CFFA
:10044E00E981FA816B817C811881259608950E943D
:10045E004F067B816A81F981E88177FB770F67FD13
:10046E007160972F9E5781F078F0983190F4AA27FB
:10047E00BB27882708948795B795A7959A95D1F7A6
:10048E00EA23FB23682305C0E8947727EE27FF278E
:10049E0066276F77769508F4606877F9A991B99118
:1004AE0089919991EA17FB076807790797FB0895D9
:1004BE000E944F060E9440060E942E020E94450690
:1004CE0019F40E94150407C0E6F70E9415040E9455
:1004DE0005040E940E05249608950E944F06249747
:1004EE001A930A930E9418040E9465062CF0EFEFEF
:1004FE00FFEF6FE77FEF71C00E941D040E944A0656
:10050E00ADB7BEB711971F930F930E9452040F9170
:10051E001F910E9422040E941804E3EFF4E065E3A9
:10052E007FE30E94F80540F40E9427040E941505FF
:10053E000E942204015010400E941D040E940504D6
:10054E000E940E057F936F93FF93EF930E941D04FD
:10055E000E9405040E941505AF91BF918F919F9146
:10056E000E94B3050E9422040E9427040E942904BF
:10057E00A6E2B2E485E69FE30E943004EEE4F1E1E8
:10058E0064E570E40E9410040E9418040E94650540
:10059E007F936F93FF93EF930E943504ADE4B1E127
:1005AE0084ED9FE30E940E05AF91BF918F919F91B5
:1005BE000E94B3057F936F93FF93EF93F8010E9410
:1005CE000004A8E1B2E781E39FE30E946505AF91C5
:1005DE00BF918F919F910E941505198108812A96CE
:1005EE0008950E944F0628971A930A930E943A0480
:1005FE00E0E5FCEA6EEA72EC0E94F80518F40E943F
:10060E00EC0383C0EA85FB856C857D850E946106BF
:10061E0019F40E94E70379C00E943A04E8E1F2E778
:10062E0061EB72E40E94F80509F010F40C942403B7
:10063E00EFEFFFEF6FE77FE768C00E943A04EBE34E
:10064E00FAEA68EB7FE30E946505EA87FB876C8711
:10065E007D870E943A042CDF0E94A4048F01F801CA
:10066E000E943A040E9400040E941004DF01CB0194
:10067E00E0E0F0E060E07FE30E9410040E942204BC
:10068E000E9427040E942904ADE6BCE48CE69DE39B
:10069E000E946505A6EAB3EE86EE90E40E9415056B
:1006AE000E9418040E9465050E9422040E943504CF
:1006BE00A8E2BDE886EA91E40E941505EA83FB8371
:1006CE006C837D830E941D04AA81BB818C819D81D8
:1006DE000E941505A3EFB4E085EB9FE30E9465052C
:1006EE007F936F93FF93EF930E9418040E9435043B
:1006FE000E940E05AF91BF918F919F910E94B305FD
:10070E000E944A06D8010E946304198108812E9620
:10071E0008950E944F0624970E94F1030E946106DD
:10072E0019F40E94EC0343C0A885B9858A859B8580
:10073E000E94650684F40E943F040E94610619F42B
:10074E000E94E70334C0A885B9858A859B850E94DF
:10075E00440447DF2CC00E943F04DE010E94A40423
:10076E000E9436060E9415040E94DB04DF01CB01B5
:10077E000E943F040E946B0619F00E94EC0317C002
:10078E000E94F1030E946F04DF01CB010E9444041A
:10079E0028DFE887F9876A877B87E881E17019F49B
:1007AE000E94F10304C00E94F1030E946F042C9674
:1007BE000895E12FF0E0DE0154960E942006089580
:1007CE00E0E0F0E060E87FE30895E0E0F0E060E074
:1007DE0070E00895E885F9856A857B850895AC817A
:1007EE00BD818E819F8108950E943B060E94A204C6
:1007FE0008950E942B060E94DB040895A0E0B0E04D
:10080E0080E89FE30895EE23E1E009F4E0E0EC9345
:10081E0008950E9454060E940E0508950E943B06FC
:10082E000895AE81BF81888599850895EE81FF81F7
:10083E00688579850895EE83FF83688779870895A3
:10084E00F5DFEFCF0E946505EA83FB836C837D8322
:10085E0008950E946505DF01CB010895EA81FB81B1
:10086E006C817D810895AA85BB858C859D850895B3
:10087E00EC81FD816E817F8108950E947402AFDF4D
:10088E00E8CF109639F088E893E10197F1F7A89533
:10089E001197C9F70895E991F9916991799177FBCB
:1008AE00660F771F88277E57880B7D938C937EE784
:1008BE00769567956EF00895E991F9916991799120
:1008CE0077FB660F771F7A0F769567950EF0089572
:1008DE0030976040704009F070580895552342F4E7
:1008EE00503811F4E0FF04C03196691F791F6BF088
:1008FE0050E8572711F45F93CFC05F3F31F0660F7A
:10090E00000C57956795752F08955F9300200AF098
:10091E00CFC0C8C050E8192E1522880F991F9527F1
:10092E00550F879550E8072E0522660F771F7527FE
:10093E00550F67950895689401C0E8945F93F2DFB0
:10094E00703818F07F3F08F4A7C056E1571BAAF481
:10095E00519558300EF4593030F0EFEFFFEF6FEF46
:10096E007FE777F91AC077275523B9F0EE0FFF1FEF
:10097E00661F771F5A95D1F710C07727583028F089
:10098E00EF2FF62F672F5850F9CF552331F076956C
:10099E006795F795E7955A95D1F700200AF441D15E
:1009AE005F910895689401C0E8943097604070405C
:1009BE00B1F0002426F0772312F4009432D1172ED2
:1009CE007EE1112032F07A95EE0FFF1F661F111C8B
:1009DE00F9CFEF2FF62F612D5F938ADF5F91089588
:1009EE004F93AF01FD01DA01AB01BC01CA01402DED
:1009FE00012C142E4F910895EA0FFB1F681F0895C6
:100A0E00E095F0956095EF5FFF4F6F4F08955F9300
:100A1E0081DF903871F150E8152604C05F937ADFBC
:100A2E00903839F1703821F1572F591B2BF112F4F0
:100A3E00D7DFFACF583118F0AA27BB2788275830AE
:100A4E0028F0AB2FB82F88275850F9CF552329F00F
:100A5E008695B795A7955A95D9F7502D512572F0D1
:100A6E00CBDF38F46795F795E795739513F420C0AF
:100A7E00B7DF3EDF5F910895D8F7FBCFEA1BFB0B84
:100A8E00680B51F010F40094BBDF662392F3EE0F67
:100A9E00FF1F661F7A95CBF7EE27FF27662777276E
:100AAE005F910895EFEFFFEF6FE77FEF5F9108958E
:100ABE00EFEFFFEF6FE77FE75F9108955F932ADF18
:100ACE00703851F3903841F301240894791F23F4C0
:100ADE001CF300203AF3ECCF0F921F932F933F930A
:100AEE004F93112722279927689FA0018F9F302DA2
:100AFE00410D591F6B9F300D411D591F8E9F27D0E1
:100B0E00BF9F25D06A9F23D0BE9F1DD0AF9F1BD005
:100B1E00AE9F110D291F391F491F591FE32FF42FA7
:100B2E00652F522F4F913F912F911F910F9066235A
:100B3E002AF0550FEE1FFF1F661F02C073954BF272
:100B4E00CDDE5F910895100D211D391F02C0200DBD
:100B5E00311D491F591F08955F93DCDE703821F453
:100B6E0011200AF49FCFA4CF903809F495CF012419
:100B7E000894970B1BF4D4F30020F3CF792F1F9317
:100B8E002F933F934F931124112722273327442766
:100B9E00552790E2AE17BF078607410730F0AE1B10
:100BAE00BF0B860B410B089401C08894551F221F62
:100BBE00331F111CAA1FBB1F881F441F9A9551F784
:100BCE00F901612D4F913F912F911F91662332F0C4
:100BDE00550FEE1FFF1F661F7A9543F27FDE5F9162
:100BEE00089599239AF0772342F0971748F029F445
:100BFE00AE17BF07860720F031F0989488940895B9
:100C0E009894089408951894889408957723C2F7B9
:100C1E00971798F3A9F7EA17FB07680788F399F374
:100C2E00ECCFF09560957095E195FF4F6F4F7F4F2C
:100C3E000895EE0FFF1FEE0FFF1F0895FE2FFF0FFB
:100C4E00FF0B6F2F7F2F08956F2F660F660B762F7A
:100C5E000895ED91FD916D917C9113970895ED930B
:100C6E00FD936D937C930895E881F9816A817B8170
:100C7E000895A881B9818A819B810895E883F983BB
:100C8E006A837B8308957A936A93FA93EA9308951D
:100C9E009A938A93BA93AA930895182E862F612D4C
:100CAE00192E972F712D1B2EBF2FF12D1A2EAE2F11
:100CBE00E12D0895309760407040089500240A1683
:100CCE000B06080609060895EA17FB076807790759
:100CDE000895AC0FBD1F05900D928A95E1F708950A
:00000001FF
