:0A0000000C945C000C9400000C94BA
:10000A0000000C9400000C9400000C9400000C9466
:10001A0000000C9400000C9400000C9400000C9456
:10002A0000000C9400000C9400000C9400000C9446
:10003A0000000C9400000C9400000C9400000C9436
:10004A0000000C9400000C9400000C9400000C9426
:10005A0000000C9400000C9400000C9400000000B6
:10006A000000000000000000000000000000000086
:10007A000000000000000000000000000000000076
:10008A000000000000000000000000000000000066
:10009A000000000000000000000001002D4E414E4B
:1000AA0000494E46000001000403A4000000F89431
:1000BA00EE27EFBBF1E0F5BFE5BFF8E1A895A4B7DD
:1000CA00A77FA4BFF0936000E09360008DE0A2E0F8
:1000DA00BB27ED938A95E9F780E098E0A0E0B1E0CC
:1000EA00ED930197E9F7E0EBF0E0859195910097A0
:1000FA0061F0A591B59105901590BF01F0010590A9
:10010A000D920197E1F7FB01F0CFE0E0EEBBEFEFD4
:10011A00EDBFE8E0EEBFC0E0D3E00C949400EC97AA
:10012A008CE3A0E0B0E0E8E6F0E00E943E0610E0D2
:10013A0020E030E040E050E0A2D0E0E0E88BE98B3C
:10014A00EA8BEB8B10E01930A8F40E94B003EA0F97
:10015A00FB1F0F01E12FF0E03196DE0154960E9459
:10016A00F405AE0FBF1F0E94FE05D0010E940406CF
:10017A001F5FE9CF04D1E8AFF9AF6AAF7BAFA8AD93
:10018A00B9AD8AAD9BADE0E0F0E060EA70E40E94B0
:10019A003905EC87FD876E877F8710E01A3090F467
:1001AA000E94B003AE0FBF1F0E94FE05A889B9893D
:1001BA008A899B890E94E904E88BF98B6A8B7B8B7D
:1001CA001F5FECCFA889B9898A899B89E0E0F0E0B2
:1001DA0060E271E40E9487050E94B703E887F98705
:1001EA006A877B87ACA9BDA98EA99FA9E8ADF9AD9D
:1001FA006AAD7BAD0E94E2040E94B703EC83FD83E3
:10020A006E837F830E94BE03AC85BD858E859F85E4
:10021A000E94E9040E94C3030E94E9040E94130693
:10022A000E94C803E556FF4F9F010E94C803ABE92D
:10023A00B0E0AE1BBF0BAD012030E1E03E071CF081
:10024A002FEF30E004C0332312F420E030E04030D6
:10025A00E1E05E071CF04FEF50E004C0552312F4B2
:10026A0040E050E0E0E0E093B3002093B400E7BD43
:10027A0048BDA2E0B0E00E941C045FCFFFCF239AE2
:10028A00EAB1E866EAB9E4B1E87FE4B95798E4B5B7
:10029A00E36AE4BDE4B5E37AE4BDE5B5E360E5BD50
:1002AA00E5B5E370E5BDE0E0E6BDE0936E00E7BDCD
:1002BA00E8BDE0918000E36AE0938000E09180006D
:1002CA00E37AE0938000E0918100EB60E0938100A3
:1002DA00E0918100EB70E0938100E0E0E09382001E
:1002EA00E0938500E0938400E0936F00E093870039
:1002FA00E0938600E0938900E0938800E0938B0006
:10030A00E0938A00E091B000E36AE093B000E091E4
:10031A00B000E37AE093B000E091B100E460E093CA
:10032A00B100E091B100E470E093B100E0E0E09345
:10033A00B200E0937000E093B300E093B400E0E809
:10034A00E0936100E0E0E09361000895E3B1E470B6
:10035A00A0E0B3E00E94CD03A1E0B3E0E3B1E27014
:10036A000E94CD03A2E0B3E0E3B1E1700E94CD03A5
:10037A00A3E0B3E0E9B1E0780E94CD0308952497A1
:10038A00E0E0E883E983EA83EB831A9310E0DEDF97
:10039A0010E0153038F5123019F1E12FF0E0E05095
:1003AA00FD4FE081E030E1F4E12FF0E0A2E0B0E0BF
:1003BA000E942806EA1BFB0B0E94D3030E94180620
:1003CA00A0E0B0E080E490E40E945E03A981BA81D3
:1003DA008B819C810E94E904E983FA836B837C8385
:1003EA001F5FD7CFE981FA816B817C8118812596BD
:1003FA0008950E941D067B816A81F981E88177FB55
:10040A00770F67FD7160972F9E5781F078F09831CA
:10041A0090F4AA27BB27882708948795B795A795AC
:10042A009A95D1F7EA23FB23682305C0E894772736
:10043A00EE27FF2766276F77769508F4606877F9C5
:10044A00A991B99189919991EA17FB0768077907E8
:10045A0097FB08950E941D060E940E060E94FE0147
:10046A000E94130619F40E94D80305C0E6F70E94F9
:10047A00D8030E94DB03249608950E941D06249740
:10048A001A930A930E94E2030E9433062CF0EFEFBC
:10049A00FFEF6FE77FEF71C00E94E7030E94180623
:1004AA00ADB7BEB711971F930F930E9426040F9101
:1004BA001F910E94EC030E94E203E3EFF4E065E37C
:1004CA007FE30E94CC0540F40E94F1030E94E904F4
:1004DA000E94EC03015010400E94E7030E94DB03D4
:1004EA007F936F93FF93EF930E94E703A0E0B0E03E
:1004FA0080E89FE30E94E904AF91BF918F919F9199
:10050A000E9487050E94EC030E94F1030E94F303F4
:10051A00A6E2B2E485E69FE30E94FA03EEE4F1E183
:10052A0064E570E40E94FF030E94E2030E94390519
:10053A007F936F93FF93EF930E940404ADE4B1E1BC
:10054A0084ED9FE30E94E204AF91BF918F919F9146
:10055A000E9487057F936F93FF93EF93F8010E94A0
:10056A00D303A8E1B2E781E39FE30E943905AF9183
:10057A00BF918F919F910E94E904198108812A965F
:10058A0008950E941D0628971A930A930E94090447
:10059A00E0E5FCEA6EEA72EC0E94CC0518F40E94CF
:1005AA000E0483C0EA85FB856C857D850E942F0633
:1005BA0029F4E0E0F0E060E87FE377C00E940904F4
:1005CA00E8E1F2E761EB72E40E94CC0509F008F475
:1005DA0005C0EFEFFFEF6FE77FE767C00E940904EE
:1005EA00EBE3FAEA68EB7FE30E943905EA87FB87C7
:1005FA006C877D870E9409042DDF0E9478048F0191
:10060A000E9409040E94D3030E94FF03DF01CB0169
:10061A00E0E0F0E060E07FE30E94FF030E94EC0369
:10062A000E94F1030E94F303ADE6BCE48CE69DE36D
:10063A000E943905A6EAB3EE86EE90E40E94E90428
:10064A000E94E2030E9439050E94EC030E940404FE
:10065A00A8E2BDE886EA91E40E94E904EA83FB8302
:10066A006C837D830E94E703AA81BB818C819D8173
:10067A000E94E904A3EFB4E085EB9FE30E943905E9
:10068A007F936F93FF93EF930E94E2030E94040407
:10069A000E94E204AF91BF918F919F910E948705BA
:1006AA000E941806D8010E943704198108812E96E3
:1006BA0008950E941D0624970E94BE030E942F06D9
:1006CA0019F40E940E0445C0A885B9858A859B85C0
:1006DA000E94330694F40E9413040E942F0629F400
:1006EA00E0E0F0E060E87FE334C0A885B9858A8558
:1006FA009B850E94180445DF2CC00E941304DE016A
:10070A000E9478040E9404060E94D8030E94AF0443
:10071A00DF01CB010E9413040E94390619F00E94DE
:10072A000E0417C00E94BE030E944304DF01CB01DE
:10073A000E94180426DFE887F9876A877B87E881A1
:10074A00E17019F40E94BE0304C00E94BE030E9415
:10075A0043042C960895E12FF0E0DE0154960E949E
:10076A00F4050895A0E0B0E080E090E00E94390529
:10077A000895E885F9856A857B850895AC81BD81F0
:10078A008E819F8108950E9409060E947604089529
:10079A00EE23E1E009F4E0E0EC9308950E94F90504
:1007AA000E94AF0408950E9409060895A0E0B0E0EF
:1007BA0080E89FE30E94E2040895AE81BF818885A4
:1007CA0099850895EE81FF81688579850895EE837C
:1007DA00FF83688779870895F5DFEFCF0E9439058F
:1007EA00EA83FB836C837D8308950E943905DF01C8
:1007FA00CB0108950E9422060E94E2040895EA812C
:10080A00FB816C817D810895AA85BB858C859D8538
:10081A000895E0E0F0E060E070E00895EC81FD8189
:10082A006E817F8108950E944202A8DFDECF109672
:10083A0039F0A89588E893E10197F1F71197C9F77C
:10084A000895E991F9916991799177FB660F771F7C
:10085A0088277E57880B7D938C937EE776956795DC
:10086A006EF00895E991F9916991799177FB660F94
:10087A00771F7A0F769567950EF008953097604046
:10088A00704009F070580895552342F4503811F415
:10089A00E0FF04C03196691F791F6BF050E85727B3
:1008AA0011F45F93CFC05F3F31F0660F000C57958C
:1008BA006795752F08955F9300200AF0CFC0C8C0CE
:1008CA0050E8192E1522880F991F9527550F8795DD
:1008DA0050E8072E0522660F771F7527550F679573
:1008EA000895689401C0E8945F93F2DF703818F0B5
:1008FA007F3F08F4A7C056E1571BAAF45195583018
:10090A000EF4593030F0EFEFFFEF6FEF7FE777F932
:10091A001AC077275523B9F0EE0FFF1F661F771FFE
:10092A005A95D1F710C07727583028F0EF2FF62FB5
:10093A00672F5850F9CF552331F076956795F7957B
:10094A00E7955A95D1F700200AF441D15F910895AD
:10095A00689401C0E894309760407040B1F0002478
:10096A0026F0772312F4009432D1172E7EE111205B
:10097A0032F07A95EE0FFF1F661F111CF9CFEF2F89
:10098A00F62F612D5F938ADF5F9108954F93AF0130
:10099A00FD01DA01AB01BC01CA01402D012C142E64
:1009AA004F910895EA0FFB1F681F0895E095F0958F
:1009BA006095EF5FFF4F6F4F08955F9381DF903827
:1009CA0071F150E8152604C05F937ADF903839F147
:1009DA00703821F1572F591B2BF112F4D7DFFACFB8
:1009EA00583118F0AA27BB278827583028F0AB2F90
:1009FA00B82F88275850F9CF552329F08695B795EF
:100A0A00A7955A95D9F7502D512572F0CBDF38F4B6
:100A1A006795F795E795739513F420C0B7DF3EDF26
:100A2A005F910895D8F7FBCFEA1BFB0B680B51F0D7
:100A3A0010F40094BBDF662392F3EE0FFF1F661FCC
:100A4A007A95CBF7EE27FF27662777275F910895D8
:100A5A00EFEFFFEF6FE77FEF5F910895EFEFFFEFA3
:100A6A006FE77FE75F9108955F932ADF703851F34C
:100A7A00903841F301240894791F23F41CF30020D1
:100A8A003AF3ECCF0F921F932F933F934F93112773
:100A9A0022279927689FA0018F9F302D410D591F4A
:100AAA006B9F300D411D591F8E9F27D0BF9F25D0A8
:100ABA006A9F23D0BE9F1DD0AF9F1BD0AE9F110D42
:100ACA00291F391F491F591FE32FF42F652F522F52
:100ADA004F913F912F911F910F9066232AF0550F46
:100AEA00EE1FFF1F661F02C073954BF2CDDE5F91AA
:100AFA000895100D211D391F02C0200D311D491FF7
:100B0A00591F08955F93DCDE703821F411200AF42E
:100B1A009FCFA4CF903809F495CF01240894970B5E
:100B2A001BF4D4F30020F3CF792F1F932F933F9315
:100B3A004F9311241127222733274427552790E260
:100B4A00AE17BF078607410730F0AE1BBF0B860BF7
:100B5A00410B089401C08894551F221F331F111C92
:100B6A00AA1FBB1F881F441F9A9551F7F901612DCF
:100B7A004F913F912F911F91662332F0550FEE1F2F
:100B8A00FF1F661F7A9543F27FDE5F9108959923CE
:100B9A009AF0772342F0971748F029F4AE17BF0767
:100BAA00860720F031F098948894089598940894D0
:100BBA0008951894889408957723C2F7971798F39D
:100BCA00A9F7EA17FB07680788F399F3ECCFF095C2
:100BDA0060957095E195FF4F6F4F7F4F0895EE0F27
:100BEA00FF1FEE0FFF1F08956F2F660F660B762FFC
:100BFA000895ED91FD916D917C9113970895ED9370
:100C0A00FD936D937C930895E881F9816A817B81D4
:100C1A000895A881B9818A819B810895E883F9831F
:100C2A006A837B8308957A936A93FA93EA93089581
:100C3A009A938A93BA93AA930895182E862F612DB0
:100C4A00192E972F712D1B2EBF2FF12D1A2EAE2F75
:100C5A00E12D0895309760407040089500240A16E7
:100C6A000B06080609060895EA17FB0768077907BD
:100C7A000895AC0FBD1F05900D928A95E1F708956E
:00000001FF
