:020000040800F2
:1000000068060020590100087F01000881010008EE
:1000100000000000000000000000000000000000E0
:100020000000000000000000000000008301000844
:1000300000000000000000008501000887010008A2
:1000400089010008000000008901000889010008FA
:100050008901000889010008890100088901000858
:1000600000000000890100088901000889010008DA
:1000700089010008890100088901000800000000CA
:10008000890100080000000000000000890100084C
:100090008901000889010008890100088901000818
:1000A0008901000889010008890100088901000808
:1000B0008901000800F002F800F03EF80CA030C8FA
:1000C000083824182D18A246671EAB4654465D46D4
:1000D000AC4201D100F030F87E460F3E0FCCB64660
:1000E0000126334200D0FB1AA246AB4633431847E1
:1000F000C00C0000E00C0000103A02D378C878C1B0
:10010000FAD8520701D330C830C101D504680C6059
:10011000704700000023002400250026103A01D378
:1001200078C1FBD8520700D330C100D50B607047AF
:100130001FB51FBD10B510BD00F032FA1146FFF714
:10014000F7FF00F013FC00F04AFA03B4FFF7F2FFE8
:1001500003BC00F07FFA00000F4880F308880F48C6
:100160000168090E0E4A914205D10E480E49016000
:100170000E480F4901600F4880470F480047FEE7CF
:10018000FEE7FEE7FEE7FEE7FEE700000B480C494E
:100190000C4A0D4B70470000680600200400000068
:1001A0001F00000018100240010000000000014084
:1001B00000000000D5080008B50000086800002015
:1001C00068060020680200206802002001E004C0E8
:1001D000091F0429FBD28B0701D50280801CC907A7
:1001E00000D00270704700290BD0C30702D0027004
:1001F000401C491E022904D3830702D50280801CBB
:10020000891EE3E70022EEE70022DFE77047704730
:1002100070471F22030C02D10F22000402D0030EEC
:1002200003D004E00020014670470002083A030FA3
:1002300001D10001121F830F01D18000921E0028FE
:1002400001DB4000521E120551184205C012411830
:1002500010467047C10FC90700D0404201229207E3
:100260001143D6E701218907D3E700000121C90521
:100270000123411842001B06D3185B0E0AD0C1109F
:100280000722D206891840075242D14201D55200B6
:1002900089187047090208D50146002A03D0C10F0A
:1002A000C9070020704710467047420202D0002064
:1002B00002497047072109050143F4E70000F87F70
:1002C000F0B5FF252D04C609C209FF2704462E40BC
:1002D0000137CB093E4348402A402B400746002ABD
:1002E0006BD0002B69D0AA4267D0AB4265D0002802
:1002F00000DA32460125ED0529432C43090220028C
:10030000090AD21A4B0C7F24E31A434C000A7C449E
:10031000E35C7D242404121914145B00A2188842A3
:1003200001D3521C00E0400049420C465C432411BA
:100330005C43DB016415E318040A5C43C502200D2D
:100340000C4644436419250A5D432303EC0C0D4617
:10035000654300030019EB184C42A34201D35B181C
:10036000401CD4052018002B07D05B00C91804D30B
:10037000401C002901D1400840003F2189048A42E5
:1003800009D3002A08DC1106090F04D0032149070C
:100390004018C00FC007F0BD0122410012068918A5
:1003A0007F2252069142F6D205214907C84201D563
:1003B0009010F0BDFF20C005F0BD002F00DA3246DE
:1003C0001648AA4207D2AB4205D21902090E17D02D
:1003D000F80FC007F0BDFF2563002D06AB42F9D82A
:1003E0004900A942F6D8AB4201D1A942F2D0A942B4
:1003F00001D1002101E061004908D0050843F0BDAA
:100400001102090EFBD0FF200243D005F0BD0A46C1
:100410000146104654E700005E0A00000000C07F5D
:1004200010B501469E240002CA15A307002A02D077
:100430001843002A04DBA21A002A0CDDD04010BDAC
:100440001206120E01D140004008A21A03D4D04077
:1004500040420028F3DDFF2248001206904201D9F5
:10046000002010BDC817C043584010BD1F22030C08
:1004700002D10F2200041CD0030E01D10002083A61
:10048000030F01D10001121F830F01D18000921EC2
:10049000002801DB4000521ED205511802125118EB
:1004A0001922904004D3491C002801D14908490071
:1004B00008467047C10FC90700D040420122920789
:1004C0001143D3E701218907D0E70000F8B5224C9A
:1004D0004E00069DA6420AD8A64201D1002806D1A8
:1004E0005E00A64203D8A6420AD1002A08D00D24F5
:1004F000240425422CD02946002000F02FF8F8BD16
:100500000C461C430CD4994202D0EFF30080F8BD96
:10051000904202D0EFF30080F8BDEFF30080F8BD09
:1005200009242407E5008B4206D0EFF30080A043A6
:10053000591A06D2284304E0101A05D3EFF30080BD
:10054000A04380F30088F8BDEFF30080A043F1E7FB
:10055000009500F01BF8F8BD0000E0FFC80212D5BE
:100560004803400F002804D0C803C043012188403D
:100570007047EFF3008000010009032109070843D9
:1005800080F30088704700207047000010B50020FD
:100590000249029A00F02BF810BD00000000F87F1D
:1005A000754600F053F8AE46050069465346C0084C
:1005B000C000854618B020B5FFF7E8FD60BC0027F5
:1005C0004908B6460026C0C5C0C5C0C5C0C5C0C51F
:1005D000C0C5C0C5C0C5403D49008D46704710B577
:1005E0000446C046C0462046FFF7AFFD10BD10B51B
:1005F0000C461107090F092904D00A290AD0082935
:100600000CD104E011460820FFF7A8FF06E05106D0
:1006100006D501E0510601D50120C007214610BDD5
:10062000D10607D501010909CC084907000E0006CB
:10063000044309E0410F20024907000A0143200E4C
:1006400000061D22D14101430846E7E700487047F4
:100650000800002001491820ABBEFEE7260002007A
:10066000704700007CB5002400250CA103C901914E
:10067000009000BF0EE00B48005D002808D06946DE
:100680000857FFF717FF0646294600F06BFA0546A4
:10069000601CC4B2082CEEDB28467CBDF1F9FBFDE2
:1006A0000305070F0000002011484069012149049B
:1006B00008430F4948610920C0060068000C000487
:1006C0000921C906086008468088000A000288805F
:1006D00008468068074908430921C906886008461A
:1006E000C068054908430921C906C8607047000071
:1006F00000100240FFFF0000AAAA0000084840695D
:10070000012149040843064948610920C0060068E0
:100710000521C90608430921C90608607047000081
:100720000010024027484069012149040843254937
:10073000486108468069012189030843214988618D
:100740000920C00600680121490508430921C9069E
:100750000860084680680321090508430921C90685
:100760008860084600680121C90408430921C906B8
:100770000860084680680321090508430921C90665
:100780008860FF2111310920C00641620E480068CF
:10079000012108430C490860084600688914884311
:1007A000094908600846406803210903884306494F
:1007B000486023208881084600680C2108430249CC
:1007C000086070470010024000380140002000BF60
:1007D0000EE00921C906098A012282401140002940
:1007E00001D0012100E00021034A1154411CC8B28C
:1007F0000828EEDB70470000000000200CB5002048
:1008000001900090314800680121090408432F49F4
:10081000086000BF2D48006801214904084000908D
:100820000198401C01900098002804D1052109037B
:1008300001988842EED1254800680121490408400A
:10084000002802D00120009001E0002000900098D4
:10085000012839D111201E4908601C4840681B49F5
:100860004860084640684860084640687F21C903E0
:100870008843164948600846406811210904084326
:1008800012494860084600680121090608430F49DB
:10089000086000BF0D480068012149060840002893
:1008A000F8D00A4840688008800008494860084637
:1008B0004068022108430549486000BF034840687A
:1008C0000C2108400828F9D10CBD0000001002409E
:1008D0000020024010B51B48006801210843194957
:1008E00008600846406818490840164948600846AC
:1008F000006816490840134908600846006801214D
:10090000890488430F490860084640683F2109046C
:1009100088430C4948600846C06A00090001C86263
:100920000846006BFF215431884306490863084696
:10093000406B40084000486300208860FFF75EFF7E
:1009400010BD0000001002400CB8FF08FFFFF6FECB
:1009500000BF0549C969402211400029F9D0024968
:1009600020310881704700000038014090B0002419
:10097000282106A8FFF748FC0020059000270490D6
:100980000390FFF7BBFEFFF78FFEFFF7CBFE71E092
:1009900000200390FFF71AFF002407E0601C80008E
:1009A00006A90858A10006AA5050641C092CF5D3CA
:1009B000FFF758FE0121C90748400F9000200F990A
:1009C00000F06EF9059000200F9900F069F90646D5
:1009D000294900F00DF90546394600F0C3F80746ED
:1009E0000E990F9800F05CF905462349FFF768FC63
:1009F00004900021049800F0FBF800210290384692
:100A000000F0F6F806461D49059800F0F1F8314669
:100A1000019000F0A7F80546029900F0A3F80390B2
:100A20000398FFF723FC05460022154B00F066F8FB
:100A300001D2144803900398FFF718FC05460022E2
:100A4000114B00F029F801D2104803900398FFF7EA
:100A5000E7FCC5B22846FFF77BFF002401E000BF9A
:100A6000641C2046FFF7FEFB0546094A094B00F0CF
:100A700013F8F4D38CE700000AD7A33C0000D04061
:100A800000C05F400000FE4200C05FC00000FEC228
:100A9000000048F4FF3F9F4070B501250C002D0574
:100AA0001C4310D4EC4206D4AC420AD4994200D084
:100AB00070BD904270BDE94217D4EB4215D4994203
:100AC00070BD894270BDEC4206D5AC42F9D58B426F
:100AD00000D070BD824270BD6D004C00EC4204D26B
:100AE0005C00EC4201D28B4270BD034C30B4FFF786
:100AF000EDFC30BC70BD00BF1900160470B50125B7
:100B00001C002D050C4310D4EC4206D4AC420AD490
:100B10008B4200D070BD824270BDEB4217D4E942D7
:100B200015D48B4270BD9B4270BDEC4206D5AC42E1
:100B3000F9D5994200D070BD904270BD6D005C0047
:100B4000EC4204D24C00EC4201D2994270BD0FB489
:100B5000034C0CBC03BC30B4FFF7B8FC30BC70BD18
:100B60001900160470B501250400ED074C4020D48F
:100B7000441A01D2001B0919C60D4B00F2B2FF2A1C
:100B800029D01B0E2CD000020C02D31A2C43DC40BF
:100B90002843051910D2280A02D3401C6D0611D033
:100BA000761EF6058019FF2A00DA70BDC00DC0055B
:100BB00070BD694000F07AF801200543C541521C20
:100BC000761CE8E764089C40C90161408900E7D1D0
:100BD0000124A043E4E71B0E440200D0034870BD8B
:100BE000002AFCD1C00FC00770BD00BF0000C07F4D
:100BF00070B5420064414B005C41120E39D01B0EAF
:100C000038D0FF2A3CD0FF2B3AD040024902400A9C
:100C1000490A060045184E43000A090AD2184843FB
:100C2000ED017F3A0104731A4019190C4318990F0A
:100C300004D001215B0849075B1A521CD80904D370
:100C4000401CF50301D19D0607D0FF2A08D2D50527
:100C500006D0E4072043401970BD0125A843F4E7FE
:100C6000002A01DCE00770BD2402FF202043C005FC
:100C700070BD1B0EFF2A03D0FF2B01D0E00770BD13
:100C8000FF2645003606B54206D84D00B54203D8CA
:100C9000D218FF2A00D0E7E7004870BD0000C07FEF
:100CA00070B501250400ED074C4022D4441A02D24D
:100CB0006C40001B0919C60D4B00F2B2FF2A4BD045
:100CC0001B0E50D000020C02D31A2C43DC40A84368
:100CD000051B05D5AD0019D36D08761E521E37D001
:100CE000F605280A01D2801970BD70416D0603D047
:100CF00070BD6940FFF73CFF9C400902614049001C
:100D000001D0401E70BD0124A04370BD6D081DD0F0
:100D100001202B0C01D12D0410302B0E01D12D02FE
:100D200008302B0F01D12D01001DAB0F01D1AD00FB
:100D3000801CEB0F01D16D00401C6D00361A121A99
:100D4000680AF5054019012A02DB70BD002070BD5C
:100D5000C036300AC00770BD1B0E440201D1FF2B04
:100D600000D1024870BD002AF0D070BD0000C07FE5
:100D70008182838485868788898B8C8D8E8F9192E2
:100D800093959697999A9C9D9FA0A2A3A5A7A8AA80
:100D9000ACAEB0B2B3B5B7B9BCBEC0C2C5C7C9CCA2
:100DA000CED1D4D7D9DCDFE2E6E9ECF0F3F7FAFEF6
:100DB000D00D00080000002008000000F800000826
:100DC000D80D00080800002060060000140100088B
:080DD00000000000000000001B
:040000050800015995
:00000001FF
