:020000040800F2
:10000000600600203D01000863010008650100084A
:1000100000000000000000000000000000000000E0
:100020000000000000000000000000006701000860
:100030000000000000000000690100086B010008DA
:100040006D010008000000006D0100086D0100084E
:100050006D0100086D0100086D0100086D010008C8
:10006000000000006D0100086D0100086D0100082E
:100070006D0100086D0100086D010008000000001E
:100080006D01000800000000000000006D01000884
:100090006D0100086D0100086D0100086D01000888
:1000A0006D0100086D0100086D0100086D01000878
:1000B0006D01000800F002F800F030F80CA030C824
:1000C000083824182D18A246671EAB4654465D46D4
:1000D000AC4201D100F022F87E460F3E0FCCB6466E
:1000E0000126334200D0FB1AA246AB4633431847E1
:1000F0004C0400005C0400000023002400250026BE
:10010000103A01D378C1FBD8520700D330C100D5D3
:100110000B6070471FB51FBD10B510BD00F04BF848
:100120001146FFF7F7FF00F0F5F900F063F803B4AC
:10013000FFF7F2FF03BC00F069F800000F4880F3FE
:1001400008880F480168090E0E4A914205D10E48F1
:100150000E4901600E480F4901600F4880470F4863
:100160000047FEE7FEE7FEE7FEE7FEE7FEE70000EA
:100170000B480C490C4A0D4B7047000060060020EC
:10018000040000001F0000001810024001000000E1
:10019000000001400000000099040008B5000008BC
:1001A0006000002060060020600200206002002045
:1001B000704770477047754600F024F8AE4605005A
:1001C00069465346C008C000854618B020B5FFF701
:1001D000CFFF60BC00274908B6460026C0C5C0C591
:1001E000C0C5C0C5C0C5C0C5C0C5C0C5403D49002B
:1001F0008D46704710B50446C046C0462046FFF7FE
:1002000096FF10BD004870470000002001491820EB
:10021000ABBEFEE726000200704700000C484069B4
:100220000121890408430A4948610A4800680421F9
:100230000843084908600846808802218843054928
:100240008880084680680C2108430249886070470E
:100250000010024000040048234840680C21084078
:1002600000280CD120484068800880001E49486062
:1002700000BF1D4840680C2108400028F9D11A48E9
:100280000068012108431849086000BF164800684B
:10029000022108400028F9D01348406812494860FC
:1002A000084640682921090408430F494860084668
:1002B0000068012108430C49086000BF0A48006833
:1002C000022108400028F9D00748406806494860E4
:1002D00000BF054840680C2108400028F9D11120D2
:1002E00002490860704700000010024000200240F0
:1002F000084840690121490408430649486109202A
:10030000C00600680521C90608430921C90608601E
:10031000704700000010024027484069012149044D
:10032000084325494861084680690121890308433B
:10033000214988610920C006006801214905084358
:100340000921C90608600846806803210905084399
:100350000921C9068860084600680121C9040843CC
:100360000921C90608600846806803210905084379
:100370000921C9068860FF2111310920C0064162A8
:100380000E480068012108430C49086008460068CF
:100390008914884309490860084640680321090315
:1003A00088430649486023208881084600680C215C
:1003B00008430249086070470010024000380140BD
:1003C0000CB500200190009031480068012109041B
:1003D00008432F49086000BF2D48006801214904E7
:1003E000084000900198401C01900098002804D11A
:1003F0000521090301988842EED1254800680121B2
:1004000049040840002802D00120009001E00020AB
:1004100000900098012839D111201E4908601C481D
:1004200040681B4948600846406848600846406884
:100430007F21C90388431649486008464068112156
:10044000090408431249486008460068012109066A
:1004500008430F49086000BF0D48006801214906A4
:1004600008400028F8D00A48406880088000084901
:10047000486008464068022108430549486000BFBB
:10048000034840680C2108400828F9D10CBD000041
:10049000001002400020024010B51B4800680121F6
:1004A0000843194908600846406818490840164939
:1004B0004860084600681649084013490860084625
:1004C00000680121890488430F4908600846406894
:1004D0003F21090488430C4948600846C06A000966
:1004E0000001C8620846006BFF2154318843064969
:1004F00008630846406B400840004863002088605D
:10050000FFF75EFF10BD0000001002400CB8FF08AE
:10051000FFFFF6FE00BFFFF79FFEFFF7E9FEFFF7C4
:100520007DFEFFF7F9FE05E00348808A02210843BB
:1005300001498882F8E70000000400484C050008E3
:0C0540000000002060060000F800000829
:040000050800013DB1
:00000001FF
