:020000040800F2
:100000006806002081010008A7010008A901000876
:1000100000000000000000000000000000000000E0
:10002000000000000000000000000000AB0100081C
:100030000000000000000000AD010008AF01000852
:10004000B101000800000000B1010008B101000882
:10005000B1010008B1010008B1010008B1010008B8
:1000600000000000B1010008B1010008B101000862
:10007000B1010008B1010008B10100080000000052
:10008000B10100080000000000000000B1010008FC
:10009000B1010008B1010008B1010008B101000878
:1000A000B1010008B1010008B1010008B101000868
:1000B000B101000800F002F800F053F80CA030C8BD
:1000C000083824182D18A246671EAB4654465D46D4
:1000D000AC4201D100F045F87E460F3E0FCCB6464B
:1000E0000126334200D0FB1AA246AB4633431847E1
:1000F000841B0000A41B0000103A02D378C878C10A
:10010000FAD8520701D330C830C101D504680C6059
:10011000704700000023002400250026103A01D378
:1001200078C1FBD8520700D330C100D50B607047AF
:1001300010B5662902D101F02BFD10BD752902D141
:1001400000F0A2F810BD002010BD1FB500F042FD68
:1001500004000020002101F0FFFBE0601FBD10B58E
:1001600010BD01F0EDF81146FFF7EFFF01F044FB81
:1001700001F005F903B4FFF7F2FF03BC01F04CF9FD
:100180000F4880F308880F480168090E0E4A914213
:1001900005D10E480E4901600E480F4901600F4815
:1001A00080470F480047FEE7FEE7FEE7FEE7FEE771
:1001B000FEE700000B480C490C4A0D4B704700004D
:1001C00068060020040000001F0000001810024014
:1001D000010000000000014000000000E9160008D6
:1001E000B5000008680000206806002068020020B2
:1001F000680200200FB41CB5074B06AA7B44694671
:100200000090059800F0B9FC0020694600F0C8FC99
:100210001CBC08BC04B01847A1090000F8B50E4684
:100220000446002020622046E1688847002829D043
:10023000252802D06268A16820E0E16820460027F6
:10024000884705001ED028464138192802D80127C2
:10025000FF0220353246204627602946FFF768FF17
:10026000002808D0012804D0F61DF608F60008364C
:10027000D9E7361DD7E762682846A1689047206A0B
:10028000401CCFE7206AF8BDF7B500257529106836
:10029000009914A611D0C046C046002802DA404298
:1002A00011A608E0009909688A0701D50FA602E0A7
:1002B000490704D50EA6012501E0C046C046009FAF
:1002C0000024243704E000F070FC30313955641C00
:1002D0000028F8D12B4632462146009800F0E3F979
:1002E000FEBD0000000000002D0000002B000000FB
:1002F0002000000001E004C0091F0429FBD28B0785
:1003000001D50280801CC90700D002707047002907
:100310000BD0C30702D00270401C491E022904D32F
:10032000830702D50280801C891EE3E70022EEE7E6
:100330000022DFE7002203098B422CD3030A8B4201
:1003400011D300239C464EE003460B433CD40022CD
:1003500043088B4231D303098B421CD3030A8B42DF
:1003600001D394463FE0C3098B4201D3CB01C01AAD
:10037000524183098B4201D38B01C01A5241430978
:100380008B4201D34B01C01A524103098B4201D366
:100390000B01C01A5241C3088B4201D3CB00C01AD3
:1003A000524183088B4201D38B00C01A524143084B
:1003B0008B4201D34B00C01A5241411A00D2014670
:1003C0005241104670475DE0CA0F00D04942031009
:1003D00000D34042534000229C4603098B422DD358
:1003E000030A8B4212D3FC22890112BA030A8B4200
:1003F0000CD3890192118B4208D3890192118B424F
:1004000004D389013AD0921100E08909C3098B42D3
:1004100001D3CB01C01A524183098B4201D38B0116
:10042000C01A524143098B4201D34B01C01A5241B9
:1004300003098B4201D30B01C01A5241C3088B42FE
:1004400001D3CB00C01A524183088B4201D38B00E9
:10045000C01A5241D9D243088B4201D34B00C01A73
:100460005241411A00D20146634652415B10104688
:1004700001D34042002B00D54942704763465B10D0
:1004800000D3404201B50020C046C04602BD7047BF
:10049000704770470121C9050123411842001B061E
:1004A000D3185B0E0AD0C1100722D2068918400764
:1004B0005242D14201D5520089187047090208D52D
:1004C0000146002A03D0C10FC9070020704710461B
:1004D0007047420202D000200249704707210905F7
:1004E0000143F4E70000F87FF0B5FF252D04C609AD
:1004F000C209FF2704462E400137CB093E4348403E
:100500002A402B400746002A6BD0002B69D0AA4214
:1005100067D0AB4265D0002800DA32460125ED05F0
:1005200029432C4309022002090AD21A4B0C7F24CA
:10053000E31A434C000A7C44E35C7D242404121932
:1005400014145B00A218884201D3521C00E0400042
:1005500049420C465C4324115C43DB016415E318FB
:10056000040A5C43C502200D0C4644436419250A65
:100570005D432303EC0C0D46654300030019EB18A3
:100580004C42A34201D35B18401CD4052018002B19
:1005900007D05B00C91804D3401C002901D14008D2
:1005A00040003F2189048A4209D3002A08DC110651
:1005B000090F04D0032149074018C00FC007F0BD40
:1005C00001224100120689187F2252069142F6D27A
:1005D00005214907C84201D59010F0BDFF20C00594
:1005E000F0BD002F00DA32461648AA4207D2AB42CD
:1005F00005D21902090E17D0F80FC007F0BDFF256C
:1006000063002D06AB42F9D84900A942F6D8AB42A7
:1006100001D1A942F2D0A94201D1002101E061003B
:100620004908D0050843F0BD1102090EFBD0FF2098
:100630000243D005F0BD0A460146104654E70000CB
:10064000661600000000C07F1F22030C02D10F229B
:1006500000041CD0030E01D10002083A030F01D19F
:100660000001121F830F01D18000921E002801DBC0
:100670004000521ED2055118021251181922904002
:1006800004D3491C002801D1490849000846704795
:10069000C10FC90700D04042012292071143D3E79E
:1006A00001218907D0E7FFB504460D4681B024300B
:1006B00000902168880604D51022E06991432160EA
:1006C00000E00120A84201DD471B00E0002704985C
:1006D000A1697A191018081AA0612078C00602D4FE
:1006E0002046C046C046002608E003986268A1681C
:1006F000805D9047206A401C761C206204988642E8
:10070000F3DB2078C0060AD52046C046C04606E086
:100710006268A16830209047206A401C20623846F9
:100720007F1E0028F4DC07E000986268A168405D45
:100730009047206A401C206228466D1E0028F3DC8A
:100740002046C046C0462078000602D5022005B0EB
:10075000F0BD0120FBE700007047FFB50C461E46C8
:100760008FB003CA089009914F007D0D00D16D1E16
:10077000002108460020C0460321099A8905084047
:10078000002A03DA8200801840080840800D012802
:100790000A9002DD0020C0430A90089807430DD05C
:1007A000F048F149281848430714189800281DD02C
:1007B0007542291E1DDD0A9842421BE01898012847
:1007C00002D00020302104E00020F24305E0215453
:1007D000401CB042FBDB30460022189B0021215414
:1007E0000F998B600A60486013B0F0BDBD1B6D1C93
:1007F000DFE70A9A002900DA69420BA800F070FAD4
:100800000BAB07CB03AB07C30899099800F0D4FAE8
:100810006B4607C30146D5480918002D00910BDD32
:10082000D24903980A9A49424018002303A9039029
:10083000684600F031FD08E003990A9A0023081881
:1008400003A90390684600F0D1FC6B4607C300047F
:10085000000C03D00020C043410800E01046189A65
:10086000002A03D00022009215461EE0751E05D412
:1008700000F0B4F9303262556D1EF9D501220843FB
:10088000079602D000227F1C04E02078302801D196
:1008900000227F1E002A069787D01EE0112D07DA5E
:1008A00000F09CF9303262556D1C02460A43F5D1C6
:1008B000084303D00098002819D00EE00021681EDC
:1008C00005E0235C625C63542254401E491C814253
:1008D000F7DBA81B401E07950690079A1899002081
:1008E000A0540F98079B069A81600CC07CE71126E4
:1008F0000020189059E7D21DF0B50D460446D108E6
:1009000093B0C90003C90C900D9100F05FFF02463F
:100910000D98C00F01D02D2007E02068810701D578
:100920002B2002E04007C00F4001032A0F9001D0A6
:10093000072A05DB03462946204600F08DF90EE123
:100940002078800601D5E76900E006272846652D56
:1009500004D0662814D0672D69D12DE00020112F16
:10096000009001DB112300E07B1C0CAA03A910A856
:10097000FFF7F3FE1199002610987D1C0E9142E0BE
:1009800001203B460CAAC0070B900120009003A950
:1009900010A8FFF7E2FE119D12981099002600287A
:1009A0000E9501D1781C0D18781B02D446427D1C8F
:1009B000761EE81B00903AE0012F00DA01270020A4
:1009C000112F009001DD112300E03B460CAA03A982
:1009D00010A8FFF7C2FE11993D46109800260E910F
:1009E000217809070BD40E99A94200DA0D4603A914
:1009F000012D04DD4A19203AD27F302A06D0B842B0
:100A000001DA011D04DA012100910FE06D1EEFE70C
:100A1000002802DC86192D1A03E0411CA94200DDE2
:100A20000D46801B401C00900120C0070B902078D1
:100A3000000705D40098A84202DB0020C0430090C4
:100A400069460020C8720B98012102AF0337C9071D
:100A5000884225D0022010902B2011900B9800285E
:100A60000BDA40420B902D20119006E00B9800F01D
:100A70009CF830317F1E0B9039701099481E002968
:100A80001090F3DC0B980028F0D111987F1E38707D
:100A90002088000501D5452000E065207F1E3870C4
:100AA00001A8C01BC01D0B900F98002800D001208A
:100AB00041190098C01709180B980818A169081A5D
:100AC000401EA0612078C00602D42046C046C04621
:100AD0000F98002805D06268A1689047206A401CE2
:100AE00020622078C00625D52046C046C04621E0B9
:100AF000002E07DB0E98B04204DD03A86268805D1B
:100B0000A16802E06268A16830209047206A761CE4
:100B1000401C20620098401E002800900AD100F07E
:100B200059F8C06862680168405CA1689047206A13
:100B3000401C206228466D1E0028D9DC07E0626850
:100B40003878A1687F1C9047206A401C20620B996E
:100B5000481E00290B90F2DC2046C046C046032008
:100B600042E6000001FCFFFF104D0000E1DFFFFF47
:100B700001694A1C02610878704700B58FB0029184
:100B80000021059105490193794403911146049090
:100B90006846FFF743FB0FB000BD0000E5FFFFFF15
:100BA0000A681070521C0A60704701468008081AD3
:100BB00002091018020A1018020C1018C00882004E
:100BC00012185200891A01E0401C0A390A29FBD286
:100BD0007047000000487047280000200B4670B5A1
:100BE000024689078008084319469D08141AA9413E
:100BF00025090807054308092C194841250A01065B
:100C00000D43010A2C194141200C0D0428430D0C01
:100C100000194D41002140194D41C00869070843A2
:100C2000E908840F8D002543840024184D412419C0
:100C30006D41121BAB4107E00925ED432C11521900
:100C400063410024401C61411C460A250026551BB7
:100C5000B441F1D270BD0000F8B51F46044601232F
:100C60000068DB02032601461840072A05DB00283E
:100C700001D017A506E017A504E0002801D016A5AD
:100C800000E016A5102081432160A069C01E002F3E
:100C9000A06101D0401EA0612046C046C046002F82
:100CA00009D038466268A1689047206A401C2062DB
:100CB000C01C206206E0206AFAE762682878A16812
:100CC0006D1C9047761EF8D22046C046C046F8BD3F
:100CD0004E414E006E616E00494E4600696E6600E0
:100CE000F7B516468AB0334878446C4603467C33E1
:100CF000C06F5A689B680DC42E487844763003ACA8
:100D00000DC80DC43720C001081837211B30FFF76C
:100D10001BFB05460C46803D1B3C02D5644201206E
:100D200000E000200027099010E0E0070CD00C2024
:100D300020497843794432464C39411868460123AA
:100D400000F054FA6B4607C364107F1C002CECD1F2
:100D5000184F7F442E3F16E0E80712D02001C0193B
:100D60000EC80691089307920068F04201D19819C5
:100D700008903246012306A903A800F037FA03AB16
:100D800007C36D10641C002DE6D10998002806D019
:100D900032466946012303A800F07EFA05E00123EC
:100DA0003246694603A800F021FA0A9B07C30DB03A
:100DB000F0BD0000F40E0000034640000A4610B5E6
:100DC000400D0BD00121C9070F24A40200191C03F8
:100DD00064082143540D2143D20207E00021012081
:100DE000F2E7D40F490021435200401E0029F8DAEF
:100DF000DB0FDB07184310BDFFB50D46144685B069
:100E00004868516800F0CAFC00910190A868A16888
:100E100000F0C4FC02910390A868616800F0BEFC79
:100E2000029A12188242029201D2012000E00020B0
:100E3000019A0B18D2180028019202D08A4202D9D6
:100E400003E08A4201D2012000E000200099081846
:100E500000906868A16800F0A1FC029A1218824212
:100E6000029201D2012000E00020019A0B18D21852
:100E70000028019202D08A4202D903E08A4201D2BC
:100E8000012000E0002000990818009028682168DF
:100E900040004900400849084018FA49471814E042
:100EA00001994000C90F0843009001980299400041
:100EB000C90F08430190029803994000C90F0843E5
:100EC0000290039840007F1E039000980028E7DA04
:100ED0000898002801D0EC4E00E00026B74201DA65
:100EE000012000E00020002804902AD0F71BF8061B
:100EF000C00E15D0029B2021091A039A8B401A4379
:100F00000392029A019BC2408B401A430292019ABB
:100F1000009BC2408B4000991A430192C14000914E
:100F20007B110DD06F460320C11A03D5002182002A
:100F3000B95003E08A008100BA587A50401EF3D5B8
:100F4000374603980299002800D0012001430898F1
:100F50000291002808460CD0002800D001200199F9
:100F6000019A490508430121D20AC902D20201921D
:100F700000E001210E9B0122D207012B02D0002BA1
:100F800003D013E0002807D120E0904204D890421B
:100F90000CD1019B0B4209D0019B5918019105D13D
:100FA0000099491C009101D17F1C009200280DD0AE
:100FB000102108460020C0460498002806D00F984B
:100FC000002803D0082108460020C0462868216870
:100FD000019B009A4840C10F0598C90739430EC0CC
:100FE00009B0F0BDFFB587B0099A08980899536811
:100FF0009268406889689646002203931746944693
:10100000089A12685300099A5B0812685200520845
:101010009A1A9E4BD4180A9A002A01D0352200E071
:10102000402206920022012315460492DB07059315
:1010300024E0002D05D175460346039E4D1BB341A8
:1010400009D375466646039B491B049D9841059B41
:101050007519AC465F4163463B4308D0059B049E2F
:10106000DD0776082E435B080496059301E0521EC7
:10107000641EC50FED0749184041521C069B9A4259
:10108000D7DB002D04D17546039A6B1A824101D239
:1010900003200CE0039A0B466B404240134303D0FD
:1010A000014303D0012002E0022000E0002061465D
:1010B00001910021009702910A99002905D061460B
:1010C00040020143704B019102E08007002302902F
:1010D0009C4201DA012000E0002007003AD01A1BF0
:1010E000D006C00E15D0029D2021019C091AC540D2
:1010F0008C402543029C8C4000D001242543019C58
:101100000295009DC4408D4000992C430194C1403C
:10111000009154111DD06D460221002202290CD1EC
:101120000320001B07E0002804DB8600AE59002ED8
:1011300000D00122401C0328F5DB081B02D58800E3
:101140002A5004E08000285810438A00A850491E05
:10115000E3D51C460A98002802980CD0002800D03D
:1011600001200199019A490508430121D20AC902C7
:10117000D202019200E00121109B0122D207012B33
:1011800002D0002B03D013E0002807D11FE09042CB
:1011900004D890420CD1019B0B4209D0019B5918F5
:1011A000019105D10099491C009101D1641C009264
:1011B00000280CD0102108460020C046002F06D081
:1011C0001198002803D0082108460020C04608983E
:1011D0000999019A009B006809684840C10F079867
:1011E000C907214382600AC00BB0F0BD00B585B0CD
:1011F000019300920A460146002302A8FFF7FCFD76
:1012000002A807C805B000BDFFB50A461F4685B055
:101210000799019301230091014602A8FFF7ECFD15
:1012200002990398049ECA0F4900D20700920F2228
:10123000490892028C1A0021002800DB0C46450068
:1012400013486D08844214D3079A002A04DA441E16
:101250000026104DF64302E004460D460E461021CE
:1012600008460020C046002F03D004210846002075
:10127000C0462005E90A0843009908436905F20AB7
:101280001143ADE602C0FFFF013C0000FF3F00003C
:10129000FF070000FFFFFF7F00B585B001930092BC
:1012A0000A460146002302A8FFF79CFE02A807C8D1
:1012B000A8E7FFB50A461F4685B0079901930123A9
:1012C0000091014602A8FFF78DFE02990398049E43
:1012D000CA0F4900D20700920F22490892028C1AC5
:1012E0000021002800DB0C46450011486D088442AF
:1012F00014D3079A002A04DA441E00260D4DF64343
:1013000002E004460D460E46102108460020C04665
:10131000002F03D0042108460020C0462005E90A1A
:101320000843009908436905F20A114358E6000092
:10133000FF070000FFFFFF7F004870470800002004
:101340007546FFF7F9FFAE46050069465346C008EB
:10135000C000854618B020B5FEF72CFF60BC002702
:101360004908B6460026C0C5C0C5C0C5C0C5C0C571
:10137000C0C5C0C5C0C5403D49008D46704710B5C9
:101380000446C046C0462046FEF7F4FE10BD0000ED
:10139000024670B50A4392072AD11E4DEE0104C8D9
:1013A00008C9541B9443344017D0D0B2D9B2401A64
:1013B0002106014310D190B299B2401A2104014391
:1013C0000AD110021902000A090A401A2102014337
:1013D00002D1100E190E401A70BD9A42DFD010BA19
:1013E00019BA884201D9012070BD0020C04370BDE8
:1013F00002780B78401C491C002A09D09A4207D178
:1014000002780B78401C491C002A01D09A42EFD088
:10141000D01A70BD0101010101491820ABBEFEE7E1
:1014200026000200704700007CB5002400250CA1B6
:1014300003C90191009000BF0EE00B48005D002839
:1014400008D069460857FFF723F90646294600F0F9
:1014500099FA0546601CC4B2082CEEDB28467CBD18
:10146000B0DDF6FE020A235000000020114840695A
:101470000121490408430F4948610920C00600685A
:10148000000C00040921C906086008468088000A8B
:101490000002888008468068074908430921C90678
:1014A00088600846C068054908430921C906C86024
:1014B0007047000000100240FFFF0000AAAA0000D1
:1014C0000848406901214904084306494861092048
:1014D000C00600680521C90608430921C90608603D
:1014E000704700000010024027484069012149046C
:1014F000084325494861084680690121890308435A
:10150000214988610920C006006801214905084376
:101510000921C906086008468068032109050843B7
:101520000921C9068860084600680121C9040843EA
:101530000921C90608600846806803210905084397
:101540000921C9068860FF2111310920C0064162C6
:101550000E480068012108430C49086008460068ED
:101560008914884309490860084640680321090333
:1015700088430649486023208881084600680C217A
:1015800008430249086070470010024000380140DB
:101590001CB5002400BF28E00920C006008A0121F4
:1015A000A1400840002801D0012000E0002010499F
:1015B000085522460FA101A8FEF71CFE0EA000F060
:1015C000DFF801A800F0DCF80DA000F0D9F8084819
:1015D000025D08A16846FEF70DFE684600F0D0F8EF
:1015E0000AA000F0CDF8601CC4B2082CD4DB1CBDEE
:1015F0000000002025750000504F525420000000CC
:101600002C2056414C554520000000000D0A0000DA
:101610000CB50020019000903148006801210904B8
:1016200008432F49086000BF2D4800680121490484
:10163000084000900198401C01900098002804D1B7
:101640000521090301988842EED12548006801214F
:1016500049040840002802D00120009001E0002049
:1016600000900098012839D111201E4908601C48BB
:1016700040681B4948600846406848600846406822
:101680007F21C903884316494860084640681121F4
:101690000904084312494860084600680121090608
:1016A00008430F49086000BF0D4800680121490642
:1016B00008400028F8D00A4840688008800008499F
:1016C000486008464068022108430549486000BF59
:1016D000034840680C2108400828F9D10CBD0000DF
:1016E000001002400020024010B51B480068012194
:1016F00008431949086008464068184908401649D7
:1017000048600846006816490840134908600846C2
:1017100000680121890488430F4908600846406831
:101720003F21090488430C4948600846C06A000903
:101730000001C8620846006BFF2154318843064906
:1017400008630846406B40084000486300208860FA
:10175000FFF75EFF10BD0000001002400CB8FF084C
:10176000FFFFF6FE00BF0549C9694022114000296C
:10177000F9D002492031088170470000003801404B
:1017800010B50346002405E02146621CD4B2585C23
:10179000FFF7E8FF185D0028F6D110BDF8B5040C7E
:1017A0008BB2264682B25E43104658430D0C370C6E
:1017B000360400218019164679416E43370C3604F1
:1017C0008019264679416E438919F8BD4900CA023D
:1017D0000243100000D004204A0D01D00122104322
:1017E000044A490D914201D102210843012800D148
:1017F00005207047FF07000092B00024282108A8A8
:10180000FEF796FD00200790002706900590FFF751
:1018100057FEFFF72BFEFFF767FE78E000200590EC
:10182000FFF7B6FE002407E0601C800008A90858F6
:10183000A10008AA5050641C092CF5D3FFF7F4FD51
:101840000121C9074840119011980790304911981B
:1018500000F0DEF80546394600F094F80746109986
:10186000119800F02DF905462949FEF73DFE069036
:101870000021069800F0CCF826490190384600F087
:10188000C7F806467F21C905079800F0C1F8314620
:10189000009000F077F80546019900F073F8059084
:1018A0000598FEF7F7FD05462A460B461AA102A841
:1018B000FEF7A0FC19A0FFF763FF02A8FFF760FF87
:1018C0001CA0FFF75DFF1CA0FFF75AFF002412E0E9
:1018D000A10008AA5058FEF7DDFD05462A460B4632
:1018E0000DA102A8FEF786FC17A0FFF749FF02A88A
:1018F000FFF746FF641C082CEAD314A0FFF740FF53
:10190000002401E000BF641C12488442FAD385E73A
:101910000000A040CDCCCC3C256600005049445F7F
:10192000746F74616C5F636F7272656374696F6EFC
:101930003A2000000D0A00006572726F725F6869DC
:1019400073746F72793A0000200000000D0A0D0ACE
:10195000000000008813000010B500290AD00878A4
:10196000002807D005487844FFF712FD002801D071
:10197000002010BD0248784410BD00002E03000076
:101980002603000070B501250400ED074C4020D46B
:10199000441A01D2001B0919C60D4B00F2B2FF2AEE
:1019A00029D01B0E2CD000020C02D31A2C43DC4091
:1019B0002843051910D2280A02D3401C6D0611D005
:1019C000761EF6058019FF2A00DA70BDC00DC0052D
:1019D00070BD694000F07AF801200543C541521CF2
:1019E000761CE8E764089C40C90161408900E7D1A2
:1019F0000124A043E4E71B0E440200D0034870BD5D
:101A0000002AFCD1C00FC00770BD00BF0000C07F1E
:101A100070B5420064414B005C41120E39D01B0E80
:101A200038D0FF2A3CD0FF2B3AD040024902400A6E
:101A3000490A060045184E43000A090AD2184843CD
:101A4000ED017F3A0104731A4019190C4318990FDC
:101A500004D001215B0849075B1A521CD80904D342
:101A6000401CF50301D19D0607D0FF2A08D2D505F9
:101A700006D0E4072043401970BD0125A843F4E7D0
:101A8000002A01DCE00770BD2402FF202043C005CE
:101A900070BD1B0EFF2A03D0FF2B01D0E00770BDE5
:101AA000FF2645003606B54206D84D00B54203D89C
:101AB000D218FF2A00D0E7E7004870BD0000C07FC1
:101AC00070B501250400ED074C4022D4441A02D21F
:101AD0006C40001B0919C60D4B00F2B2FF2A4BD017
:101AE0001B0E50D000020C02D31A2C43DC40A8433A
:101AF000051B05D5AD0019D36D08761E521E37D0D3
:101B0000F605280A01D2801970BD70416D0603D018
:101B100070BD6940FFF73CFF9C40090261404900ED
:101B200001D0401E70BD0124A04370BD6D081DD0C2
:101B300001202B0C01D12D0410302B0E01D12D02D0
:101B400008302B0F01D12D01001DAB0F01D1AD00CD
:101B5000801CEB0F01D16D00401C6D00361A121A6B
:101B6000680AF5054019012A02DB70BD002070BD2E
:101B7000C036300AC00770BD1B0E440201D1FF2BD6
:101B800000D1024870BD002AF0D070BD0000C07FB7
:101B900003B402487844844603BC60475FEDFFFF0E
:101BA0008182838485868788898B8C8D8E8F9192A4
:101BB00093959697999A9C9D9FA0A2A3A5A7A8AA42
:101BC000ACAEB0B2B3B5B7B9BCBEC0C2C5C7C9CC64
:101BD000CED1D4D7D9DCDFE2E6E9ECF0F3F7FAFEB8
:101BE00002400000000000A00000000005400000CE
:101BF000000000C8000000000C4000000000409CF5
:101C000000000000194000000020BCBE00000000E1
:101C100034400000BFC91B8E00000004B540000026
:101C2000504BCFD06607E2CF010000006C410000AE
:101C30003E8251AADFEEA73401000000D942000025
:101C4000DCB5A0E23A301F97FFFFFFFFB44500006C
:101C5000FD25A0C8E9A3C14FFFFFFFFFFF3F000024
:101C60000000008000000000FF3F00000000008036
:101C700000000000B01C0008000000200800000068
:101C8000F8000008B81C00080800002060060000EA
:101C9000140100081C00000043000000F8FFFFFFD3
:101CA0000C0000000E0000000F0000002E000000DD
:081CB00000000000000000002C
:04000005080001816D
:00000001FF
