:020000040000FA
:1000000060060020390100004101000043010000AA
:1000100000000000000000000000000000000000E0
:10002000000000000000000000000000450100008A
:10003000000000000000000047010000490100002E
:100040004B010000000000004B0100004B010000CC
:100050004B0100004B0100004B0100004B01000070
:10006000000000004B0100004B0100004B010000AC
:100070004B0100004B0100004B010000000000009C
:100080004B01000000000000000000004B010000D8
:10009000000000004B0100004B0100004B0100007C
:1000A000000000004B010000000000004B010000B8
:1000B00000F002F800F030F80CA030C8083824181E
:1000C0002D18671EA246AB4654465D46AC4201D190
:1000D00000F022F87E460F3EB6460FCC0126334292
:1000E00000D0FB1A3343A246AB461847EC01000090
:1000F000FC0100000023002400250026103A01D353
:1001000078C1FBD8520700D330C100D50B607047CF
:100110001FB51FBD10B510BD00F02DF81146FFF73B
:10012000F7FF00F0D7F800F045F803B4FFF7F2FF4F
:1001300003BC00F04BF80000074880470748004721
:10014000FEE7FEE7FEE7FEE7FEE7FEE704480549B7
:10015000054A064B7047000079020000B10000001C
:100160006000002060060020600200206002002085
:10017000704770477047754600F024F8AE4605009A
:1001800069465346C008C000854618B020B5FFF741
:10019000DDFF60BCB64600260027C0C5C0C5C0C58F
:1001A000C0C5C0C5C0C5C0C5C0C5403D490849009F
:1001B0008D46704710B50446C046C0462046FFF73E
:1001C000B4FF10BD0048704700000020014918200E
:1001D000ABBEFEE7260002007047000070B582B09B
:1001E000002301930093012214042148011F0D688C
:1001F00025430D6054040D6825400095019D6D1C3C
:100200000195009D002D04D105252D03019EAE42D0
:10021000F1D10D68254201D0009200E00093009BCF
:10022000012B23D1134B11241C6003680360036866
:1002300003607F23DB0305689D4305602304046896
:100240001C43046012060B6813430B600A6892019A
:10025000FCD50168032291430160016802220A4330
:10026000026001680C220A40082AFAD102B070BD6F
:10027000041002400020024080B5134802680121AA
:100280000A4302604268114B134043600268104BFE
:10029000134003608A040368934303603F221204FF
:1002A000436893434360C26A0F239A43C262FF22AA
:1002B0005432036B93430363426B8A4342630021CE
:1002C0008160FFF78BFF80BD001002400CB8FF0873
:1002D000FFFFF6FEFEE70000E8020000000000203D
:0802E00060060000F4000000BC
:0400000500000139BD
:00000001FF
